:1000000000000120310E0000A10E0000A30E000030
:10001000A50E0000A70E0000A90E000000000000C1
:10002000000000000000000000000000AB0E000017
:10003000AD0E000000000000AF0E0000B10E000089
:10004000B30E0000B30E0000B30E0000B30E0000AC
:10005000B30E0000B30E0000B30E0000B30E00009C
:10006000B30E0000B30E0000B30E0000B30E00008C
:10007000B30E0000B30E0000B30E0000B30E00007C
:10008000B30E0000B30E0000B30E0000B30E00006C
:10009000B30E0000B30E0000B30E0000B30E00005C
:1000A000B30E0000B30E0000B30E0000B30E00004C
:1000B000B30E0000B30E00000000000000000000BE
:1000C000B30E0000B30E0000B30E0000B30E00002C
:1000D000B30E0000B30E0000B30E000000000000DD
:1000E0000000000000000000000000000000000010
:1000F0000000000000000000000000000000000000
:1001000000000000000000000000000000000000EF
:1001100000000000000000000000000000000000DF
:1001200000000000000000000000000000000000CF
:1001300000000000000000000000000000000000BF
:1001400000000000000000000000000000000000AF
:10015000000000000000000000000000000000009F
:10016000000000000000000000000000000000008F
:10017000000000000000000000000000000000007F
:10018000000000000000000000000000000000006F
:10019000000000000000000000000000000000005F
:1001A000000000000000000000000000000000004F
:1001B000000000000000000000000000000000003F
:1001C000000000000000000000000000000000002F
:1001D000000000000000000000000000000000001F
:1001E000000000000000000000000000000000000F
:1001F00000000000000000000000000000000000FF
:08020000940000000100000061
:100208000348044B834202D0034B03B1184770479D
:100218000400002004000020000000000548064BF0
:100228001B1AD90F01EBA301491002D0034B03B1EC
:100238001847704704000020040000200000000058
:1002480010B5064C237843B9FFF7DAFF044B13B116
:100258000448AFF300800123237010BD0400002080
:1002680000000000D40E000008B5054B1BB105497D
:100278000548AFF30080BDE80840FFF7CFBF00BFD7
:100288000000000008000020D40E0000A3F5803A0A
:10029800704700BF174B002B08BF134B9D46FFF755
:1002A800F5FF00218B460F461348144A121A00F036
:1002B8003DF80E4B002B00D098470D4B002B00D07B
:1002C80098470020002104000D000D48002802D0A6
:1002D8000C48AFF3008000F031F82000290000F04E
:1002E80053F800F011F800BF0000080000000000FB
:1002F800000000000000012004000020240000206D
:10030800000000000000000008B5064B044613B1C9
:100318000021AFF30080044B1B6803B198472046C7
:1003280000F030F8000000002000002002440346DE
:10033800934200D1704703F8011BF9E770B50D4BE4
:100348000D4C00261D1BB6EBA50F09D100F0AEFD24
:100358000A4C0B4B00261D1BB6EBA50F05D170BD33
:1003680054F8043B98470136EDE754F8043B9847A6
:100378000136F1E7C00E0000C00E0000C00E0000FC
:10038800C40E0000FEE700BF80B582B000AF00F0E9
:1003980025F800F04DF8002000F070F80346002B17
:1003A8000ED0002000F080F8012000F08FF8022025
:1003B80000F08CF8032000F089F8042000F086F89B
:1003C80000237B6002E07B6801337B607B68024A24
:1003D8009342F8DDDFE700BF3F420F0080B483B0EF
:1003E80000AF4FF0A0430C22C3F834274FF0A043CE
:1003F8000C22C3F8382711237B6010E001227B68A8
:100408009A404FF0A043C3F8182501227B689A4010
:100418004FF0A043C3F808257B6801337B607B68F5
:10042800142BEBDD00BF00BF0C37BD4680BC704706
:1004380080B400AF0B4B0C4AC3F81025094B0B4A8C
:10044800C3F81425074B0A4AC3F81825054B094A6F
:10045800C3F81C25034B084AC3F8202500BFBD4636
:1004680080BC704700600040010D020003111300BA
:1004780003121300031313000314130080B483B092
:1004880000AF7860074A7B68403352F82330002B6E
:1004980014BF01230023DBB218460C37BD4680BCCD
:1004A800704700BF0060004080B483B000AF786040
:1004B800054A7B684033002142F8231000BF0C37FF
:1004C800BD4680BC704700BF0060004080B483B068
:1004D80000AF7860044A7B68012142F8231000BF0E
:1004E8000C37BD4680BC70470060004080B483B0C4
:1004F80000AF224B1B68B3F1FF3F0AD1204B1B68AA
:10050800DBB27B601F4B1B681B0903F00F033B60CA
:1005180005E01A4B1B687B601B4B1B683B607B68C4
:10052800062B24D13B68072B1DD03B68072B1CD812
:100538003B68062B15D03B68062B16D83B68052B65
:100548000DD03B68052B10D83B68032B03D03B68C4
:10055800042B02D009E001230AE0012308E001236B
:1005680006E0012304E0012302E0012300E0002368
:1005780018460C37BD4680BC704700BF30010010DC
:10058800E00F00F0E80F00F03401001080B483B0F1
:1005980000AF1C4B1B68DBB27B601B4B1B681B0945
:1005A80003F00F033B607B68062B24D13B68072BC5
:1005B8001DD03B68072B1CD83B68062B15D03B6821
:1005C800062B16D83B68052B0DD03B68052B10D899
:1005D8003B68032B03D03B68042B02D009E00123BE
:1005E8000AE0002308E0002306E0002304E00023DB
:1005F80002E0002300E0002318460C37BD4680BC0B
:10060800704700BFE00F00F0E80F00F080B483B03F
:1006180000AF224B1B68B3F1FF3F0AD1204B1B6888
:10062800DBB27B601F4B1B681B0903F00F033B60A9
:1006380005E01A4B1B687B601B4B1B683B607B68A3
:10064800062B24D13B68072B1DD03B68072B1CD8F1
:100658003B68062B15D03B68062B16D83B68052B44
:100668000DD03B68052B10D83B68032B03D03B68A3
:10067800042B02D009E001230AE0012308E001234A
:1006880006E0012304E0012302E0012300E0002347
:1006980018460C37BD4680BC704700BF30010010BB
:1006A800E00F00F0E80F00F03401001080B483B0D0
:1006B80000AF1C4B1B68DBB27B601B4B1B681B0924
:1006C80003F00F033B607B68062B24D13B68072BA4
:1006D8001DD03B68072B1CD83B68062B15D03B6800
:1006E800062B16D83B68052B0DD03B68052B10D878
:1006F8003B68032B03D03B68042B02D009E001239D
:100708000AE0002308E0002306E0002304E00023B9
:1007180002E0002300E0002318460C37BD4680BCE9
:10072800704700BFE00F00F0E80F00F080B483B01E
:1007380000AF224B1B68B3F1FF3F0AD1204B1B6867
:10074800DBB27B601F4B1B681B0903F00F033B6088
:1007580005E01A4B1B687B601B4B1B683B607B6882
:10076800062B24D13B68072B1DD03B68072B1CD8D0
:100778003B68062B15D03B68062B16D83B68052B23
:100788000DD03B68052B10D83B68032B03D03B6882
:10079800042B02D009E001230AE0012308E0012329
:1007A80006E0012304E0012302E0012300E0002326
:1007B80018460C37BD4680BC704700BF300100109A
:1007C800E00F00F0E80F00F03401001080B483B0AF
:1007D80000AF1C4B1B68DBB27B601B4B1B681B0903
:1007E80003F00F033B607B68062B24D13B68072B83
:1007F8001DD03B68072B1CD83B68062B15D03B68DF
:10080800062B16D83B68052B0DD03B68052B10D856
:100818003B68032B03D03B68042B02D009E001237B
:100828000AE0002308E0002306E0002304E0002398
:1008380002E0002300E0002318460C37BD4680BCC8
:10084800704700BFE00F00F0E80F00F080B483B0FD
:1008580000AF1C4B1B68DBB27B601B4B1B681B0982
:1008680003F00F033B607B68062B24D13B68072B02
:100878001DD03B68072B1CD83B68062B15D03B685E
:10088800062B16D83B68052B0DD03B68052B10D8D6
:100898003B68032B03D03B68042B02D009E00123FB
:1008A8000AE0002308E0002306E0002304E0002318
:1008B80002E0002300E0002318460C37BD4680BC48
:1008C800704700BFE00F00F0E80F00F080B483B07D
:1008D80000AF224B1B68B3F1FF3F0AD1204B1B68C6
:1008E800DBB27B601F4B1B681B0903F00F033B60E7
:1008F80005E01A4B1B687B601B4B1B683B607B68E1
:10090800062B24D13B68072B1DD03B68072B1CD82E
:100918003B68062B15D03B68062B16D83B68052B81
:100928000DD03B68052B10D83B68032B03D03B68E0
:10093800042B02D009E000230AE0002308E0012389
:1009480006E0012304E0012302E0012300E0002384
:1009580018460C37BD4680BC704700BF30010010F8
:10096800E00F00F0E80F00F03401001080B483B00D
:1009780000AF224B1B68B3F1FF3F0AD1204B1B6825
:10098800DBB27B601F4B1B681B0903F00F033B6046
:1009980005E01A4B1B687B601B4B1B683B607B6840
:1009A800062B24D13B68072B1DD03B68072B1CD88E
:1009B8003B68062B15D03B68062B16D83B68052BE1
:1009C8000DD03B68052B10D83B68032B03D03B6840
:1009D800042B02D009E001230AE0012308E00123E7
:1009E80006E0012304E0012302E0012300E00023E4
:1009F80018460C37BD4680BC704700BF3001001058
:100A0800E00F00F0E80F00F03401001080B483B06C
:100A180000AF224B1B68B3F1FF3F0AD1204B1B6884
:100A2800DBB27B601F4B1B681B0903F00F033B60A5
:100A380005E01A4B1B687B601B4B1B683B607B689F
:100A4800062B24D13B68072B1DD03B68072B1CD8ED
:100A58003B68062B15D03B68062B16D83B68052B40
:100A68000DD03B68052B10D83B68032B03D03B689F
:100A7800042B02D009E001230AE0012308E0012346
:100A880006E0012304E0012302E0012300E0002343
:100A980018460C37BD4680BC704700BF30010010B7
:100AA800E00F00F0E80F00F03401001080B483B0CC
:100AB80000AF1A4B1B687B60194B1B683B607B6857
:100AC800062B24D13B68072B1DD03B68072B1CD86D
:100AD8003B68062B15D03B68062B16D83B68052BC0
:100AE8000DD03B68052B10D83B68032B03D03B681F
:100AF800042B02D009E000230AE0002308E00023C9
:100B080006E0012304E0012302E0012300E00023C2
:100B180018460C37BD4680BC704700BF3001001036
:100B28003401001080B483B000AF1A4B1B687B609F
:100B3800194B1B683B607B68062B24D13B68072B4D
:100B48001DD03B68072B1CD83B68062B15D03B688B
:100B5800062B16D83B68052B0DD03B68052B10D803
:100B68003B68032B03D03B68042B02D009E0002329
:100B78000AE0002308E0002306E0002304E0012344
:100B880002E0012300E0002318460C37BD4680BC74
:100B9800704700BF300100103401001080B500AF6D
:100BA800FFF7C0FF0346002B07D04FF010234FF08C
:100BB8008042D3F80832C2F8583500BF80BD000023
:100BC80080B400AF034B044A1A6000BFBD4680BC26
:100BD800704700BF000000200090D00380B500AF30
:100BE800FFF784FC0346002B06D07F4B1B681B0ACB
:100BF8007E4A03F01F031360FFF7C8FC0346002B6F
:100C080002D07B4B7B4A1A60FFF700FD0346002B9E
:100C180006D0794B1B685B0B784A03F00703136017
:100C2800FFF744FD0346002B05D0754BDB68744A7B
:100C380023F08073D360FFF779FD0346002B0ED0B5
:100C48004FF080430022C3F80C214FF0804300226C
:100C5800C3F810214FF080430022C3F83825FFF76E
:100C6800B5FD0346002B02D0664B03221A60FFF73E
:100C7800EDFD0346002B0BD0634B05221A60634B36
:100C880001221A60624B00221A60624B3F221A60EE
:100C9800FFF71CFE0346002B76D04FF080535E4AC8
:100CA800D3F80434C2F820354FF080535A4AD3F8A9
:100CB8000834C2F824354FF08053574AD3F80C341F
:100CC800C2F828354FF08053534AD3F81034C2F88D
:100CD8002C354FF08053504AD3F81434C2F83035CD
:100CE8004FF080534C4AD3F81834C2F834354FF0DB
:100CF8008053494AD3F81C34C2F840354FF080532A
:100D0800454AD3F82034C2F844354FF08053424A5C
:100D1800D3F82434C2F848354FF080533E4AD3F80C
:100D28002834C2F84C354FF080533B4AD3F82C3462
:100D3800C2F850354FF08053374AD3F83034C2F8F0
:100D480054354FF08053344AD3F83434C2F8603500
:100D58004FF08053304AD3F83834C2F864354FF036
:100D680080532D4AD3F83C34C2F868354FF080538D
:100D7800294AD3F84034C2F86C354FF08053264ADC
:100D8800D3F84434C2F87035FFF7F0FD0346002B62
:100D980005D0224B1B68224A03F04F031360FFF76C
:100DA80035FE0346002B0DD04FF08043D3F80034B6
:100DB80003F00103002B05D04FF080436FF00102D0
:100DC800C3F80024FFF772FE0346002B05D0154B2D
:100DD8001B68144A43F480631360FFF7DFFEFFF7D4
:100DE800EFFE00BF80BD00BF240300104035014066
:100DF80074C007400DF0ADBA440200103C05004035
:100E0800F0ED00E0A0050040105600408856004074
:100E1800185600401456004000C000405802001008
:100E2800E40E00403C1700400F49104A104B00F0F8
:100E380010F81049104A114B00F00BF81049114AEC
:100E4800114B00F006F81149114A124B00F001F855
:100E580006E0521A03DD043A98588850FBDC7047C4
:100E6800FFF7BCFEFFF716FA000000200400002080
:100E7800200F00000400002004000020240F0000C0
:100E88000400002004000020240F000004000020BB
:100E980004000020240F0000FEE7FEE7FEE7FEE75F
:100EA800FEE7FEE7FEE7FEE7FEE7FEE7F8B500BF70
:100EB800F8BC08BC9E46704771020000F8B500BF38
:100EC800F8BC08BC9E4670474902000000000000BC
:100ED800200F00000000002001000000240F000087
:100EE8000400002000000000240F0000040000207F
:100EF80000000000240F0000040000200000000093
:100F08000400002008000000240000200000000069
:080F180024000020000000008D
:040F20000090D0036A
:0400000300000E31BA
:00000001FF
