:100000000000012055120000C5120000C7120000B8
:10001000C9120000CB120000CD1200000000000049
:10002000000000000000000000000000CF120000EF
:10003000D112000000000000D3120000D512000011
:10004000D7120000D7120000D7120000D71200000C
:10005000D7120000D7120000D7120000D7120000FC
:10006000D7120000D7120000D7120000D7120000EC
:10007000D7120000D7120000D7120000D7120000DC
:10008000D7120000D7120000D7120000D7120000CC
:10009000D7120000D7120000D7120000D7120000BC
:1000A000D7120000D7120000D7120000D7120000AC
:1000B000D7120000D712000000000000000000006E
:1000C000D7120000D7120000D7120000D71200008C
:1000D000D7120000D7120000D71200000000000065
:1000E0000000000000000000000000000000000010
:1000F0000000000000000000000000000000000000
:1001000000000000000000000000000000000000EF
:1001100000000000000000000000000000000000DF
:1001200000000000000000000000000000000000CF
:1001300000000000000000000000000000000000BF
:1001400000000000000000000000000000000000AF
:10015000000000000000000000000000000000009F
:10016000000000000000000000000000000000008F
:10017000000000000000000000000000000000007F
:10018000000000000000000000000000000000006F
:10019000000000000000000000000000000000005F
:1001A000000000000000000000000000000000004F
:1001B000000000000000000000000000000000003F
:1001C000000000000000000000000000000000002F
:1001D000000000000000000000000000000000001F
:1001E000000000000000000000000000000000000F
:1001F00000000000000000000000000000000000FF
:10020000410D0A00420D0A00494E4600696E660023
:100210004E414E006E616E00303132333435363728
:100220003839616263646566000000003031323342
:1002300034353637383941424344454600000000E2
:10024000286E756C6C290000300000002E00000044
:100250004C435F434F4C4C41544500004C435F437B
:1002600054595045000000004C435F4D4F4E4554DB
:10027000415259004C435F4E554D45524943000091
:100280004C435F54494D45004C435F4D45535341EA
:1002900047455300496E66696E6974790000000035
:1002A0004E614E0042616C6C6F63207375636365D1
:1002B00065646564000000002F566F6C756D657392
:1002C0002F646174612F6A656E6B696E732F776F2F
:1002D000726B73706163652F474E552D746F6F6C31
:1002E000636861696E2F61726D2D31352F73726392
:1002F0002F6E65776C69622D63796777696E2F6EF3
:1003000065776C69622F6C6962632F7374646C69C2
:10031000622F64746F612E63000000002F566F6CB3
:10032000756D65732F646174612F6A656E6B696E9C
:10033000732F776F726B73706163652F474E552D06
:10034000746F6F6C636861696E2F61726D2D3135EA
:100350002F7372632F6E65776C69622D637967778F
:10036000696E2F6E65776C69622F6C6962632F739B
:1003700074646C69622F6D707265632E6300000097
:100380002C2066756E6374696F6E3A200000000061
:10039000617373657274696F6E2022257322206603
:1003A00061696C65643A2066696C65202225732258
:1003B0002C206C696E65202564257325730A000066
:1003C000303030303030303030303030303030302D
:1003D000202020202020202020202020202020201D
:1003E0000020202020202020202028282828282005
:1003F00020202020202020202020202020202020FD
:100400002088101010101010101010101010101064
:100410001004040404040404040404101010101054
:10042000101041414141414101010101010101011E
:100430000101010101010101010101011010101070
:1004400010104242424242420202020202020202F0
:100450000202020202020202020202021010101044
:10046000200000000000000000000000000000006C
:10047000000000000000000000000000000000007C
:10048000000000000000000000000000000000006C
:10049000000000000000000000000000000000005C
:1004A000000000000000000000000000000000004C
:1004B000000000000000000000000000000000003C
:1004C000000000000000000000000000000000002C
:1004D000000000000000000000000000000000001C
:1004E0000000000005000000190000007D00000071
:1004F0000080E03779C34143176E05B5B5B8934620
:10050000F5F93FE9034F384D321D30F94877825AEB
:100510003CBF737FDD4F1575000000000000F03F09
:1005200000000000000024400000000000005940CE
:100530000000000000408F40000000000088C34021
:1005400000000000006AF8400000000080842E4196
:1005500000000000D01263410000000084D79741E2
:100560000000000065CDCD41000000205FA00242E8
:10057000000000E876483742000000A2941A6D425D
:10058000000040E59C30A2420000901EC4BCD64250
:1005900000003426F56B0C430080E03779C34143FB
:1005A00000A0D8855734764300C84E676DC1AB4371
:1005B000003D9160E458E143408CB5781DAF15448F
:1005C00050EFE2D6E41A4B4492D54D06CFF080446A
:1005D000F64AE1C7022DB544B49DD9794378EA447F
:1005E000303030303030303030303030303030300B
:1005F00020202020202020202020202020202020FB
:0806000094000000010000005D
:100608000348044B834202D0034B03B11847704799
:100618008408002084080020000000000548064BDC
:100628001B1AD90F01EBA301491002D0034B03B1E8
:100638001847704784080020840800200000000044
:1006480010B5064C237843B9FFF7DAFF044B13B112
:100658000448AFF300800123237010BD84080020F4
:1006680000000000D08D000008B5054B1BB10549FE
:100678000548AFF30080BDE80840FFF7CFBF00BFD3
:100688000000000088080020D08D0000A3F5803A03
:10069800704700BF174B002B08BF134B9D46FFF751
:1006A800F5FF00218B460F461348144A121A00F032
:1006B800FFFE0E4B002B00D098470D4B002B00D0AF
:1006C80098470020002104000D000D48002802D0A2
:1006D8000C4800F0E1FF00F02FFF2000290000F097
:1006E80023F800F0F5FD00BF00000800000000003E
:1006F800000000000000012084080020B80B002042
:10070800A11600005945000080B400AF4FF0A04387
:100718000C22C3F834274FF0A0430C22C3F8382723
:1007280000BFBD4680BC704780B584B000AF1123C0
:10073800FB6010E00122FB689A404FF0A043C3F829
:1007480018250122FB689A404FF0A043C3F80825FA
:10075800FB680133FB60FB68142BEBDD00F044F809
:10076800FFF7D2FF0023BB604123FB714223BB711B
:100778004FF0A043D3F8103503F40053002B03D1F6
:10078800FB79184600F062F84FF0A043D3F8103513
:1007980003F48043002B03D1BB79184600F056F8C8
:1007A80000F078F803467B717A79FB799A4203D195
:1007B8000A4800F09BFD06E07A79BB799A4202D19B
:1007C800074800F093FD074BBB6000BFBB68013BC7
:1007D800BB60BB68002BF9D1CAE700BF000200006C
:1007E8000402000040420F0080B400AF4FF0A04365
:1007F8000122C3F818274FF0A0430022C3F820278E
:10080800104B0622C3F80C250E4B0822C3F81425FA
:100818000C4B0D4AC3F824250A4B4FF0FF32C3F89E
:100828000825084B4FF0FF32C3F81025054B082266
:10083800C3F80025034B01229A6000BFBD4680BC67
:10084800704700BF002000400050270080B483B0EC
:1008580000AF0346FB710E4B01229A600C4AFB79EC
:10086800C2F81C3500BF0A4BD3F81C31002BFAD054
:10087800074B0122DA60064B00229A60044B0022E3
:10088800C3F81C2100BF0C37BD4680BC704700BFB1
:100898000020004080B483B000AF0C4B01221A60E6
:1008A8000A4BD3F80831002B09D0084B0022C3F8B3
:1008B8000821064BD3F81835FB71FB7900E00023BB
:1008C80018460C37BD4680BC704700BF002000406A
:1008D80080B586B000AFF860B9607A60BB687B61AC
:1008E80000233B610AE07B691B781846FFF7AEFFDF
:1008F8007B6901337B613B6901333B613B697A6802
:100908009A42F0D87B6818461837BD4680BD00006B
:1009180080B483B000AF224B1B68B3F1FF3F0AD10C
:10092800204B1B68DBB27B601F4B1B681B0903F065
:100938000F033B6005E01A4B1B687B601B4B1B6871
:100948003B607B68062B24D13B68072B1DD03B6896
:10095800072B1CD83B68062B15D03B68062B16D8EE
:100968003B68052B0DD03B68052B10D83B68032B43
:1009780003D03B68042B02D009E001230AE00123DD
:1009880008E0012306E0012304E0012302E001233B
:1009980000E0002318460C37BD4680BC704700BFF6
:1009A80030010010E00F00F0E80F00F034010010F3
:1009B80080B483B000AF1C4B1B68DBB27B601B4B61
:1009C8001B681B0903F00F033B607B68062B24D1CF
:1009D8003B68072B1DD03B68072B1CD83B68062BB0
:1009E80015D03B68062B16D83B68052B0DD03B6805
:1009F800052B10D83B68032B03D03B68042B02D08F
:100A080009E001230AE0002308E0002306E00023B0
:100A180004E0002302E0002300E0002318460C371E
:100A2800BD4680BC704700BFE00F00F0E80F00F043
:100A380080B483B000AF224B1B68B3F1FF3F0AD1EB
:100A4800204B1B68DBB27B601F4B1B681B0903F044
:100A58000F033B6005E01A4B1B687B601B4B1B6850
:100A68003B607B68062B24D13B68072B1DD03B6875
:100A7800072B1CD83B68062B15D03B68062B16D8CD
:100A88003B68052B0DD03B68052B10D83B68032B22
:100A980003D03B68042B02D009E001230AE00123BC
:100AA80008E0012306E0012304E0012302E001231A
:100AB80000E0002318460C37BD4680BC704700BFD5
:100AC80030010010E00F00F0E80F00F034010010D2
:100AD80080B483B000AF1C4B1B68DBB27B601B4B40
:100AE8001B681B0903F00F033B607B68062B24D1AE
:100AF8003B68072B1DD03B68072B1CD83B68062B8F
:100B080015D03B68062B16D83B68052B0DD03B68E3
:100B1800052B10D83B68032B03D03B68042B02D06D
:100B280009E001230AE0002308E0002306E000238F
:100B380004E0002302E0002300E0002318460C37FD
:100B4800BD4680BC704700BFE00F00F0E80F00F022
:100B580080B483B000AF224B1B68B3F1FF3F0AD1CA
:100B6800204B1B68DBB27B601F4B1B681B0903F023
:100B78000F033B6005E01A4B1B687B601B4B1B682F
:100B88003B607B68062B24D13B68072B1DD03B6854
:100B9800072B1CD83B68062B15D03B68062B16D8AC
:100BA8003B68052B0DD03B68052B10D83B68032B01
:100BB80003D03B68042B02D009E001230AE001239B
:100BC80008E0012306E0012304E0012302E00123F9
:100BD80000E0002318460C37BD4680BC704700BFB4
:100BE80030010010E00F00F0E80F00F034010010B1
:100BF80080B483B000AF1C4B1B68DBB27B601B4B1F
:100C08001B681B0903F00F033B607B68062B24D18C
:100C18003B68072B1DD03B68072B1CD83B68062B6D
:100C280015D03B68062B16D83B68052B0DD03B68C2
:100C3800052B10D83B68032B03D03B68042B02D04C
:100C480009E001230AE0002308E0002306E000236E
:100C580004E0002302E0002300E0002318460C37DC
:100C6800BD4680BC704700BFE00F00F0E80F00F001
:100C780080B483B000AF1C4B1B68DBB27B601B4B9E
:100C88001B681B0903F00F033B607B68062B24D10C
:100C98003B68072B1DD03B68072B1CD83B68062BED
:100CA80015D03B68062B16D83B68052B0DD03B6842
:100CB800052B10D83B68032B03D03B68042B02D0CC
:100CC80009E001230AE0002308E0002306E00023EE
:100CD80004E0002302E0002300E0002318460C375C
:100CE800BD4680BC704700BFE00F00F0E80F00F081
:100CF80080B483B000AF224B1B68B3F1FF3F0AD129
:100D0800204B1B68DBB27B601F4B1B681B0903F081
:100D18000F033B6005E01A4B1B687B601B4B1B688D
:100D28003B607B68062B24D13B68072B1DD03B68B2
:100D3800072B1CD83B68062B15D03B68062B16D80A
:100D48003B68052B0DD03B68052B10D83B68032B5F
:100D580003D03B68042B02D009E000230AE00023FB
:100D680008E0012306E0012304E0012302E0012357
:100D780000E0002318460C37BD4680BC704700BF12
:100D880030010010E00F00F0E80F00F0340100100F
:100D980080B483B000AF224B1B68B3F1FF3F0AD188
:100DA800204B1B68DBB27B601F4B1B681B0903F0E1
:100DB8000F033B6005E01A4B1B687B601B4B1B68ED
:100DC8003B607B68062B24D13B68072B1DD03B6812
:100DD800072B1CD83B68062B15D03B68062B16D86A
:100DE8003B68052B0DD03B68052B10D83B68032BBF
:100DF80003D03B68042B02D009E001230AE0012359
:100E080008E0012306E0012304E0012302E00123B6
:100E180000E0002318460C37BD4680BC704700BF71
:100E280030010010E00F00F0E80F00F0340100106E
:100E380080B483B000AF224B1B68B3F1FF3F0AD1E7
:100E4800204B1B68DBB27B601F4B1B681B0903F040
:100E58000F033B6005E01A4B1B687B601B4B1B684C
:100E68003B607B68062B24D13B68072B1DD03B6871
:100E7800072B1CD83B68062B15D03B68062B16D8C9
:100E88003B68052B0DD03B68052B10D83B68032B1E
:100E980003D03B68042B02D009E001230AE00123B8
:100EA80008E0012306E0012304E0012302E0012316
:100EB80000E0002318460C37BD4680BC704700BFD1
:100EC80030010010E00F00F0E80F00F034010010CE
:100ED80080B483B000AF1A4B1B687B60194B1B684A
:100EE8003B607B68062B24D13B68072B1DD03B68F1
:100EF800072B1CD83B68062B15D03B68062B16D849
:100F08003B68052B0DD03B68052B10D83B68032B9D
:100F180003D03B68042B02D009E000230AE0002339
:100F280008E0002306E0012304E0012302E0012396
:100F380000E0002318460C37BD4680BC704700BF50
:100F4800300100103401001080B483B000AF1A4B98
:100F58001B687B60194B1B683B607B68062B24D1A0
:100F68003B68072B1DD03B68072B1CD83B68062B1A
:100F780015D03B68062B16D83B68052B0DD03B686F
:100F8800052B10D83B68032B03D03B68042B02D0F9
:100F980009E000230AE0002308E0002306E000231C
:100FA80004E0012302E0012300E0002318460C3787
:100FB800BD4680BC704700BF3001001034010010EE
:100FC80080B500AFFFF7C0FF0346002B07D04FF0F6
:100FD80010234FF08042D3F80832C2F8583500BFCA
:100FE80080BD000080B400AF034B044A1A6000BF04
:100FF800BD4680BC704700BF000000200090D003B1
:1010080080B500AFFFF784FC0346002B06D07F4B6A
:101018001B681B0A7E4A03F01F031360FFF7C8FC16
:101028000346002B02D07B4B7B4A1A60FFF700FD7A
:101038000346002B06D0794B1B685B0B784A03F0FC
:1010480007031360FFF744FD0346002B05D0754BDB
:10105800DB68744A23F08073D360FFF779FD034699
:10106800002B0ED04FF080430022C3F80C214FF024
:1010780080430022C3F810214FF080430022C3F8B8
:101088003825FFF7B5FD0346002B02D0664B032237
:101098001A60FFF7EDFD0346002B0BD0634B0522CA
:1010A8001A60634B01221A60624B00221A60624B7D
:1010B8003F221A60FFF71CFE0346002B76D04FF044
:1010C80080535E4AD3F80434C2F820354FF0805379
:1010D8005A4AD3F80834C2F824354FF08053574A97
:1010E800D3F80C34C2F828354FF08053534AD3F85C
:1010F8001034C2F82C354FF08053504AD3F81434CA
:10110800C2F830354FF080534C4AD3F81834C2F83F
:1011180034354FF08053494AD3F81C34C2F840356F
:101128004FF08053454AD3F82034C2F844354FF085
:101138008053424AD3F82434C2F848354FF08053DC
:101148003E4AD3F82834C2F84C354FF080533B4A16
:10115800D3F82C34C2F850354FF08053374AD3F8BF
:101168003034C2F854354FF08053344AD3F834340D
:10117800C2F860354FF08053304AD3F83834C2F89B
:1011880064354FF080532D4AD3F83C34C2F86835A3
:101198004FF08053294AD3F84034C2F86C354FF0E9
:1011A8008053264AD3F84434C2F87035FFF7F0FD6F
:1011B8000346002B05D0224B1B68224A03F04F033D
:1011C8001360FFF735FE0346002B0DD04FF0804328
:1011D800D3F8003403F00103002B05D04FF080430F
:1011E8006FF00102C3F80024FFF772FE0346002BDC
:1011F80005D0154B1B68144A43F480631360FFF74E
:10120800DFFEFFF7EFFE00BF80BD00BF2403001024
:101218004035014074C007400DF0ADBA44020010DB
:101228003C050040F0ED00E0A005004010560040ED
:1012380088560040185600401456004000C0004030
:1012480058020010E40E00403C1700400F49104AB5
:10125800104B00F010F81049104A114B00F00BF831
:101268001049114A114B00F006F81149114A124B66
:1012780000F001F806E0521A03DD043A9858885045
:10128800FBDC7047FFF7BCFEFFF704FA0000002004
:10129800840800201C8E0000840800208408002098
:1012A800A09600008408002084080020A096000072
:1012B8008408002084080020A0960000FEE7FEE7CE
:1012C800FEE7FEE7FEE7FEE7FEE7FEE7FEE7FEE7EE
:1012D80008B50021044600F067F9034B1B6803B109
:1012E8009847204607F05CFDD80900200FB400B5E8
:1012F800074983B004AB086853F8042B816801934D
:1013080000F09AFC03B05DF804EB04B0704700BF2E
:1013180010000020024A0349034802F051BE00BFF2
:10132800040000202D400000180000200C4B4168EC
:10133800994210B5044601D002F074FEA168094B29
:10134800994202D0204602F06DFEE168064B9942B0
:1013580004D02046BDE8104002F064BE10BD00BFB6
:10136800A008002008090020700900202DE9F84392
:10137800314A324C3249DFF8CC90DFF8CC80334F19
:101388001160002504232946082204F15C00C4E901
:1013980003352F4EA560C4E90055C4E905556566B7
:1013A80000F086F804F15800C4E90749C4E9098740
:1013B800E66200F0E7F82946264B6367082204F145
:1013C800C400C4E91A55C4E91E552567C4F8CC50B1
:1013D800C4F8805000F06CF804F1680304F1C00010
:1013E800C4F88430C4E92298C4E9247600F0CAF825
:1013F800194BC4F8DC30294604F596700822C4E974
:101408003455C4E93855C4F8D850C4F83451C4F830
:10141800E85000F04DF804F1D003C4E93D87C4F862
:10142800F09004F59470C4F8FC60C4F8EC30BDE8A2
:10143800F84300F0A7B800BFD8090020A008002092
:101448001D13000085420000A9420000E942000087
:101458000D430000090001001200020010B5044607
:101468000A4800F093F8636B23B9094B094A1B68D3
:10147800626323B1BDE81040044800F089B8FFF763
:1014880075FFBDE81040014800F082B8E40900206B
:10149800D809002035130000014800F077B800BFD4
:1014A800E4090020014800F073B800BFE4090020F7
:1014B80030B584078646034606D0A2B303F8011B5D
:1014C800980702F1FF32F8D1032A26D95FFA81FC86
:1014D8000CEB0C2C0F2A0CEB0C402AD922F00F0C29
:1014E8009C44C3E90000C3E9020010336345F8D106
:1014F80012F00C0F02F00F0417D04FEA940C0CF105
:10150800FF351A4603EB8C0C42F8040B6245FBD1FD
:10151800043304F0030203EB850322B11A4403F8F1
:10152800011B9A42FBD1704630BD2246002AF5D1F4
:10153800F9E71446E1E700BF70B50E4E0E4DAE4216
:1015480008D0761BB610002455F8043B01349847A0
:10155800A642F9D8094E0A4D07F024FCAE4208D03D
:10156800761BB610002455F8043B01349847A64270
:10157800F9D870BDB88D0000B88D0000C08D00008E
:10158800B88D0000704700BF704700BF704700BFAC
:10159800704700BF024B13B1024800F07DB8704796
:1015A80000000000594500002DE9F04F384FDFF8E2
:1015B800E49083B00E4601903868FFF7E7FFD9F84A
:1015C80000B0BBF1000F32D0DBF804305C1E2ED423
:1015D8000BF1040505EB83057EBBDBF80430D5F879
:1015E8000080013BA34216BF0023CBF804402B60C8
:1015F800B8F1000F16D03868DBF804A0FFF7C8FF71
:10160800DBF888210123A34013422ED1C047386854
:10161800FFF7BCFFDBF80420D9F80030524533D17E
:101628005B4531D1013C631CA5F10405D4D1386870
:1016380003B0BDE8F04FFFF7ABBFD5F800319E42CD
:1016480004F1FF32C9D0002CF1D0D5F8FC30B342F8
:10165800A4F1020412D0621CA5F10805EDD1386886
:1016680003B0BDE8F04FFFF793BFDBF88C21D5F846
:101678008010134205D10198C047C8E71446043DBD
:10168800ABE70846C047C2E7002BD0D09B469BE794
:1016980018020020E8090020002301461A461846CF
:1016A80003F06AB82DE9F04F01F10B02162A85B054
:1016B800814624D8102900F2AA8002F075FC022580
:1016C80018211022B44C2144A1F108004E6886422A
:1016D80000F05C817268F168B46822F00302324459
:1016E800E1608C60516841F001014846516002F0A8
:1016F80061FC06F10804204605B0BDE8F08F32F021
:10170800070200F18480914200F28180019202F088
:101718004BFC019AB2F5FC7FC0F0B481570A7ED029
:10172800042F00F26C81970907F139052BB207F1F4
:10173800380CDB00984C2344A3F108065B689E42F2
:1017480007D10DE00028DF6880F20D81BE4207D086
:101758003B46596821F00301881A0F28F2DD6546D7
:1017680023698E498B4200F0EB805E6826F0030601
:10177800B11A0F2900F38B8188480029C4E90400B5
:1017880080F27381B6F5007F676880F01381F108F5
:1017980001310FFA81FC76090121B14054F83C006F
:1017A80098600F4304EBCC010839D960676044F8AE
:1017B8003C30C360AB1001269E40BE4235D83E4245
:1017C80006D125F0030576003E4205F10405FAD05E
:1017D80004EBC50804EBC5072846F9680FE0D1F803
:1017E80004C02CF0030EAEEB020CBCF10F0F0B463D
:1017F800C96800F31181BCF1000F80F226818F4285
:10180800EDD10130830707F10807E6D17AE10C230F
:10181800C9F800300024204605B0BDE8F08F4FF429
:10182800007340254FF03F0C84E7A768796821F0E2
:10183800030393429A4603D3991A0F2900F382802F
:101848005749584E0968103111440820CDE9011252
:1018580002F070FE01994B1E0344454283463068EE
:101868001D40B0F1FF3F18BF29464846019102F0DC
:1018780039FE411C0546DDE9011200F0268107EB1F
:101888000A0C844500F21F81474B186808440BF185
:10189800FF3E186000F08181D6F80080B8F1FF3F64
:1018A8001BBFA5EB0C0C60443560186015F00700F1
:1018B800CDE90223019000F04181C0F10800054400
:1018C8006B1803EA0E015844401A00EA0E06314626
:1018D8004846984602F006FE421CDDE9022300F065
:1018E8008B81401B304440F001011868A5603044EA
:1018F800A7426960186017D0BAF10F0F40F25781FC
:10190800AAF10C0121F0070C796801F0010141EA04
:101918000C017960052607EB0C01BCF10F0FC1E93A
:10192800016600F25C816968204B1E68864238BFF8
:1019380018601F4B1E68864200D218602F46C6E00A
:10194800676837E7BD1841F0010142F001027A608B
:101958004846A560696002F02DFB07F1080420469F
:1019680005B0BDE8F08F9A6801931944D760BA6052
:101978004A6842F0010248464A6002F01BFB019B9C
:1019880003F10804204605B0BDE8F08FCE68B142E7
:101998007FF4A0AE0235E3E62802002030020020E2
:1019A8001C0A00201C020020EC090020180A002054
:1019B800140A0020B6F5206F4FEA56207CD314286D
:1019C80000F2D08000F15C0109B25B30C90004EB81
:1019D800010C6158ACF1080C8C4503D1A7E089686B
:1019E8008C4504D0486820F00300B042F7D8D1F8FD
:1019F8000CC0C3E9021CCCF80830CB60DAE6142F1F
:101A080072D9542F00F2B780170B07F16F052BB26C
:101A180007F16E0CDB008DE69D1842F001025A605A
:101A28009E68834AF1608E60C4E90455C5E90222C4
:101A38004CF001026A60484643F80EC0019302F078
:101A4800B9FA019B03F10804E5E69E441C46DEF85A
:101A5800043043F00103CEF8043054F8083F4846F8
:101A6800D9608B6002F0A6FAD5E61E444846726833
:101A7800019342F00102726002F09CFA019B03F1AB
:101A88000804C8E6D508691C09B2C9001AE69D18F9
:101A980042F001025A60664A0193C4E90455C5E957
:101AA800022241F001026A604846995102F082FA26
:101AB800019B03F10804AEE6B00900F1390109B24F
:101AC8003830C90083E7A74260D0A768796821F059
:101AD80003009042A0EB020102D30F293FF732AF77
:101AE800484602F067FA95E607F15C052BB207F164
:101AF8005B0CDB001EE6414651F808398B428846EC
:101B080040F0948015F0030F05F1FF35F3D16368B9
:101B180023EA0603636076009E423FF686AE16B956
:101B280083E6760004301E42FBD0054650E680105E
:101B3800012606FA00F0074367605AE705EB01083B
:101B480008EA0E01ABEB010606EA0E0631464846E6
:101B580002F0C8FC431C019B04BF40461E46DDE959
:101B68000223BEE6542825D8300B00F16F0109B2D4
:101B78006E30C9002BE7B7F5AA7F25D8D70B07F138
:101B880078052BB207F1770CDB00D3E5294B1868F1
:101B980008440BF1FF3E18607EE615EA0E0F7FF44D
:101BA8007BAEA568514441F001016960BCE60123A0
:101BB8006B6095E7B0F5AA7F24D8F00B00F17801A7
:101BC80009B27730C90002E740F254539F4223D844
:101BD800930C03F17D0503F17C0CEB00AAE507F1FA
:101BE80008014846CDE9012303F052FFA568029B8E
:101BF80069681868019A97E60199083908EB0100A5
:101C080000266EE640F2545188420BD8B00C00F121
:101C18007D01C9007C30DAE64FF47E737F254FF0F2
:101C28007E0C87E54FF47E717E20D0E6636872E70C
:101C380030020020EC0900202DE9F04FDDB01646F7
:101C480007911C4683460E9302F00AFC036817931B
:101C5800184602F0F1FC0822169000212CA8FFF784
:101C680027FCBBF1000F04D0DBF83430002B01F067
:101C7800FD81079B5A6EB3F90C30D00740F1778588
:101C8800990400F11187079943F4005322F4005294
:101C98008B814A66930402F18780079BB3F90C3065
:101CA8001D0740F13E85079A1269002A00F0398520
:101CB80003F01A020A2A00F0438500239E46CDE964
:101CC800313333AB3093984600240023CDE91AEE24
:101CD800CDE91234CDF860E0CDF864E0CDF824E029
:101CE800CDF844E03446894BD3F8CC5102F0B2FB2E
:101CF8002CAA0346009226A922465846A84700283F
:101D080000F00D84C0F20284269A252A034601D0E9
:101D18001C44E8E7A71B054640F0048400234FF065
:101D2800FF328DF88F309A460A930134237808924F
:101D380001349946A9F120035A2B5CD8DFE813F047
:101D4800F6025B005B00F2025B005B005B00D50201
:101D58005B005B00420251025B004D02B8025B006F
:101D6800B402D600D600D600D600D600D600D600DB
:101D7800D600D6005B005B005B005B005B005B008D
:101D88005B00E8005B0044016203E800E800E8004B
:101D98005B005B005B005B00B0025B005B00600205
:101DA8005B005B005B000F025B00B6035B005B003F
:101DB80032085B005B005B005B005B005B005B0064
:101DC8005B00E8005B0044012F01E800E800E80040
:101DD80058032F012B015B004E035B001403000323
:101DE80023032B015B000F02290182035B005B00C8
:101DF80095085B002901B9F1000F00F0A6830023C4
:101E0800CDE90F3301228DF80C918DF88F300B93AB
:101E18000C920893149343AE0692329D1AF08403F1
:101E2800AE4600F0F2809DF88F201AB33198002753
:101E3800013001220135C8F8042007280DF18F026E
:101E4800CDE93105C8F8002000F3A48408F108089A
:101E580087B13198013024AA0235C8F80020072834
:101E68004FF00202CDE93105C8F8042000F3A1843F
:101E780008F10808802B00F07283089B0C9A9F1ABF
:101E8800002F00F3D3801AF4807F40F00C810C9B64
:101E9800C8F804301D44319BC8F800600133072B93
:101EA8003295319300F3DB8308F108081AF0040F28
:101EB80005D00A9B069A9E1A002E00F38984DDE954
:101EC800093206998A42ACBF9B185B180993002D0A
:101ED80040F08983002331930B9B1BB10B99584623
:101EE80003F0D6FD0DF1CC082646FBE6A9F1300338
:101EF800002214F8019B02EB820203EB4202A9F1D3
:101F08003003092BF5D90A9214E700BF30060020E8
:101F18000E9B073323F00701F1E80223CDE91223D2
:101F2800139B1E9223F000431F930E91AF4BDDE9E4
:101F38001E014FF0FF3206F0AFFE002840F0D786B2
:101F4800DDE91E01A94B4FF0FF3206F087FE05467A
:101F5800002840F0CC86DDE91201002200232AF097
:101F6800800A06F071FE002841F0E7839DF88F3063
:101F7800B9F1470FCCBF9E4E9E4E002B41F03086E4
:101F88000322CDE90F330B930C9208931493069216
:101F980043E72378CCE623784AF0200AC8E61AF00B
:101FA800200F40F0D7850E9A1AF0100F52F8045BF4
:101FB80041F098871AF0400F0E9201F0258145F301
:101FC800C0373B462DB22DE2B9F1430F00F08A87A6
:101FD8001AF0100F40F086870E9B1B688DF80C31A5
:101FE800012306930C9343AE0E9B329D04330E934C
:101FF8000023CDE90F338DF88F300B93089314939A
:102008001AF08403AE467FF40EAF0A9A0698171AA0
:10201800002F00F3AD849DF88F20002A7FF406AFCF
:10202800089B0C9A9F1A002F7FF72DAF724B319A9D
:102038001593102F25DD294610232546079C04E01B
:10204800103F102F08F1080819DD01326A481031D5
:10205800072AC8E90003CDE93121F1DD30AA21467C
:10206800584601F0CFFF002840F0C582103F102FDE
:10207800DDE931210DF1CC084FF01003E5DC2C46E9
:102088000D460132159BC8F800303D44072ACDE9BA
:102098003125C8F8047000F3FA841AF4807F08F137
:1020A80008083FF4F4AEB9F1650F40F3E382DDE9C7
:1020B80012010022002306F0BDFD002800F0D6839F
:1020C800319B4E4AC8F80020013301350122072B05
:1020D80032953193C8F8042000F3CD8708F1080839
:1020E800259B119A934280F2E484169B179A1D440B
:1020F800C8E90023319B32950133072B319300F354
:10210800D48608F10808119B5E1E002E7FF7CEAE1C
:10211800102E319B41F37F863749DDF81C901591CD
:102128002A4610270D4605E008F10808103E102E33
:1021380041F3098001331032072BC8E90057CDE974
:102148003132F1DD30AA4946584601F05BFF0028DC
:1021580040F05182DDE931320DF1CC08E6E70E9FFF
:1021680057F8046B00238DF88F30002E00F0AA86F4
:10217800B9F1530F00F08C871AF010030F9340F059
:102188008787089B002BC1F291811A460F99304628
:1021980002F0F2F99DF88F300B90002801F0B1851C
:1021A8000B9A921B0C9222EAE27206920BB1531C14
:1021B80006930F9B0E970893149310930B934FF06D
:1021C80073092AE60E9B53F8042B0A92002A80F220
:1021D80076840A9A0E9352420A9223784AF0040AA5
:1021E800A6E52B238DF88F302378A1E5FFFFEF7F3D
:1021F8000C02000008020000C003000048020000B2
:102208001AF0200F4AF0100000F09C840E9B073350
:1022180023F007031A46596852F8083B0E92002229
:102228008DF88F20089A002A18DB53EA010220F45F
:10223800906A15D1089A9AB910F001031A460693C4
:1022480000F00B8730238DF86F31089B0C92CDE995
:102258000F3314930B930DF26F16DEE520F4806AAA
:102268005CAE03F00702DB0843EA4173C908303269
:1022780053EA0105304606F8012DF2D11AF0010F94
:1022880000F03681302A00F033813023023806F816
:10229800013C5CAB00221B1A0B920C9306462CE106
:1022A80023784AF0080A43E523784AF0800A3FE594
:1022B800214611F8019BB9F12A0F01F0F785A9F120
:1022C8003003092B98BF002201F2C18311F8019B4A
:1022D80002EB820203EB4202A9F13003092BF5D984
:1022E80042EAE27308930C4624E5584602F0B8F82F
:1022F80043681993184602F09FF91B900546584603
:1023080002F0AEF8816823781A91002D3FF410ADE1
:1023180000293FF40DAD0A78002A3FF409AD4AF4CC
:10232800806A05E523784AF0010A01E59DF88F20C7
:102338002378002A7FF4FCAC20228DF88F20F7E464
:102348001AF0200F40F0D0840E9A1AF0100F52F8AD
:10235800043B41F0CE851AF0400F00F04C879BB249
:102368000E92504600215AE70E9A1AF0200F02F1F9
:10237800040300F08684126809991160C917516036
:102388000E932646AEE40E9A089E52F8040B0021DE
:1023980047F630038E42ADF890308DF88F10034623
:1023A800C0F265852AF0800545F0020A002840F051
:1023B8006085002E00F0808730238DF86F3101236F
:1023C800069610900E920DF26F164FF078090F9046
:1023D800844614900B900C9300F02FBD23786C2B3F
:1023E80003BF63784AF0200A01344AF0100A9FE4D8
:1023F8002378682B03BF63784AF4007A01344AF0E3
:10240800400A95E41AF0200F4AF0100300F0A48364
:102418000E9A073222F007029A46536852F8085B70
:102428000E921F46002BC0F2A283089A002A1EDBD8
:1024380055EA07032AF0800A19D1002A00F0EE862F
:1024480030251AE01AF0200F00F02D8451460E9B1B
:10245800073323F0070200238DF88F30089B576855
:1024680052F8085B0E92002B80F22D838A460A2DC3
:1024780077F1000380F08C833035089A9DF88F300F
:102488008DF86F51012AB8BF0122069201220C92E1
:102498000DF26F16002B01F01485069B013306938D
:1024A8000023CDE90F330B931493B6E41AF0200FF1
:1024B8004AF01001CBD10E9B1A1D0E9B08981B6881
:1024C8000027B8428DF88F701D46C1F2758021F043
:1024D800800A002B40F027850E92002840F00184E6
:1024E800CDE90F000C90149006900B905CAE94E42C
:1024F8005CAB00229B1B0B920C9308991492994297
:10250800B8BF1946CDE90F22069186E408220021BA
:102518002CA8FEF7CDFF01231C44FFF7E4BBA71B43
:10252800054612D0319A329B01323B44072AC8E94A
:1025380000673293319200F3E98008F10808099B9B
:102548003B440993002D7FF4E9AB329B002B40F00C
:10255800BB87079B0022B3F90C30319254E00A9BE9
:10256800069A9F1A002F7FF788AC102F319A41F3F3
:10257800D882DFF8D8C2CDF854C041462846B046C4
:10258800079D26461023644604E0103F102F01F1F2
:10259800080115DD01321030072AC1E90043CDE9F1
:1025A8003120F2DD30AA2946584601F02BFD10BB38
:1025B800103F102FDDE9312033A94FF01003E9DC7B
:1025C80034460546464688460132159BC8F8003011
:1025D8003D44072ACDE93125C8F8047000F3588432
:1025E80008F1080849E4079930AA584601F00AFD9D
:1025F80000283FF46FAC0B9B1BB10B99584603F0B6
:1026080047FA079BB3F90C30079A526ED00702D4E9
:102618009A0540F103855B0601F1C98309985DB00D
:10262800BDE8F08F169B17985A19C8E90003319B2B
:1026380032920133072B319300F3508708F10808D1
:102648000029C1F22F821199C8F8006001338D1852
:10265800072BCDE93135C8F804107FF725AC079969
:1026680030AA584601F0CEFC0028C4D1329D0DF1A5
:10267800CC081BE4119B319F012B05F1010507F1E3
:10268800010708F1080940F3BB810123072FCDE9B1
:102698003175C8F80060C8F8043000F37684169BDA
:1026A800179A01371D44072FC9E90023CDE9317571
:1026B80000F35D8409F10809119BDDE9120103F1BA
:1026C800FF380022002306F0B5FA002840F0B38155
:1026D800013701364544072FCDE93175C9F8006047
:1026E800C9F8048000F39A8109F10809189BC9F810
:1026F800043001371D44072F28ABCDE93175C9F8DF
:102708000030ACDC09F10808FFF7D0BB079930AA04
:10271800584601F077FC00287FF473AF0DF1CC0820
:102728000DE7079D5846294601F0F0FD002841F0C5
:102738005683B5F90C3003F01A020A2A7FF4BDAAB1
:102748000799B1F90E20002AFFF6B7AA4A6ED207F8
:1027580002D49F0540F1D186079923463246584650
:1027680001F0E2FB099009985DB0BDE8F08F9F0584
:1027780070D59D047FF587AA90047FF591AA079BE1
:102788009B899E0501F11383079B986DFEF700FF57
:1027980001F00DBB0799159330AA584601F032FC99
:1027A80000287FF428AF329D159B0DF1CC08FFF768
:1027B8004FBB0799159330AA584601F023FC00280F
:1027C8007FF419AF329D159B0DF1CC08FFF752BB72
:1027D8001F4A319B1592102E22DDA246DDF81C906F
:1027E8001027144604E0103E102E08F1080816DDE4
:1027F80001331035072BC8E90047CDE93135F2DD43
:1028080030AA4946584601F0FDFB00287FF4F3AE94
:10281800103E102EDDE931350DF1CC08E8DC5446C8
:102828000133159A3544072BC8E90026CDE931351F
:102838007FF745AB079930AA584601F0E3FB00281B
:102848007FF4D9AE329DFFF73ABB00BFC00300004A
:10285800D0030000079DA86DFEF798FEB5F90C306F
:102868006A6E99043FF516AAFFF70DBA25998142B9
:1028780040F34081DDF83C90119B9945A8BF9946EB
:10288800B9F1000F0BDD319B01334D44072BC8E92B
:1028980000693295319301F34A8008F108080F9FC7
:1028A800B9F1000FA8BFA7EB0907002F00F3748444
:1028B8000F9B1AF4806F334440F08686259A11994D
:1028C8008A4203DB1AF0010F00F003851699179866
:1028D8000D44C8E900013199329501310729319138
:1028E80001F3658008F1080811997718FF1A8E1A04
:1028F800B742A8BF3746002F0DDDC8F80030319B1E
:10290800C8F8047001333D44072B3295319301F325
:10291800A98008F10808002FA8BFF61B002E7FF732
:10292800C5AA102E319B41F376829F49DDF81C9091
:1029380015912A4610270D4605E008F10808103EB3
:10294800102E40F3008401331032072BC8E90057DA
:10295800CDE93132F1DD30AA4946584601F052FB43
:1029680000287FF448AEDDE931320DF1CC08E6E706
:10297800319A102F714641F36680DFF830C22094F7
:102988004046CDF854C0B0461025079E21936446B2
:1029980004E0103F102F00F1080015DD013210315E
:1029A800072AC0E90045CDE93121F2DD30AA3146D8
:1029B800584601F027FB00287FF41DAE103F102F6A
:1029C800DDE9312133A8E9DCDDE9204346468046CC
:1029D8001598C8F80000501C7D180728CDE9310566
:1029E800C8F8047000F322839DF88F2008F10808C6
:1029F800002A7BD1002B3FF440AA1346FFF72ABADE
:102A08001AF0010F7FF441AE0123072FCDE931758C
:102A1800C8F80060C8F804307FF768AE079930AA94
:102A2800584601F0EFFA00287FF4E5ADDDE931758D
:102A38000DF1CC095AE6119B012B7FF757AE112BEC
:102A4800594B159340F3968308942A46079C102601
:102A58001D4607E009F10809A8F11008B8F1100FA0
:102A680040F3868301371032072FC9E90056CDE9B4
:102A78003172EFDD30AA2146584601F0C3FA00282A
:102A88007FF4B9ADDDE931720DF1CC09E4E70799BE
:102A980030AA584601F0B6FA00287FF4ACAD329D52
:102AA8000DF1CC08FFF7EFB992047FF5F9A801F012
:102AB8007EB91AF0010F3FF4F9A9FFF716BB0E9380
:102AC8002378FFF735B955EA070321F0800A7FF428
:102AD800CEAC089B002B40F00481CDE90F330C935A
:102AE800149306930B935CAEFFF797B91F46002328
:102AF800FFF79EB9319B2E4AC8F8002001330135F3
:102B08000122072B32953193C8F8042000F38586FB
:102B180008F1080800297FF485AD119A0AF001032D
:102B280013433FF4C3A9169B17995A19C8E9001310
:102B3800319B32920133072B319300F3CF8408F194
:102B4800080880E50E9B1A1D0E9B0E921B6800213B
:102B5800FFF765BB53465BE40E9A04320E990E925A
:102B68000D68EF179A463B46002BBFF65EAC2D2347
:102B78008DF88F30089B6D4267EB4707002BFFF6F7
:102B880076AC0A2D77F100032AF0800AFFF474ACC2
:102B9800CDE90B890694DDF868904FF0000E5CA92A
:102BA8000AF480642CE000BFC0030000D0030000DA
:102BB80048020000EB19B34843F10003A0FB0320CF
:102BC80020F0030202EB90029B1AEB1AAD484FF07B
:102BD800CC32A846BC4602FB03F267F1000700FBB3
:102BE8000722A3FB0053B8F10A0F13444FEA550517
:102BF8007CF1000C314645EAC3754FEA53072CD3E4
:102C0800A04EEB1943F10003A6FB032020F00302BA
:102C180002EB90029B1AEB1AA3FB063267F1000045
:102C280006FB00225B0843EAC27303EB8303A5EBB0
:102C3800430330330EF1010E01F8013C4E1E002C07
:102C4800B8D099F800307345B4D1BEF1FF0FB1D0B8
:102C58000A2D77F1000380F09A850899069CCDF833
:102C680068905CAB9A1B9142B8BF1146DDF8309072
:102C7800DDF82C809DF88F30CDF844E00C92069159
:102C880008E41AF0100F40F06D821AF0400F40F07F
:102C98002C831AF4007F00F065820E9A0999126855
:102CA8001170FFF76DBB0E9A1AF0100052F8043B32
:102CB80041F022811AF0400100F02A818DF88F003E
:102CC8009BB208990027B9421D46C0F22C812AF010
:102CD800800A002B40F02781089B0E92002B3FF4BE
:102CE800FCAE0025FFF7C8BB5046FFF78FBADDE9F9
:102CF800120102460B4605F0CFFF0546002840F0BA
:102D08009587B9F1610F00F0B385B9F1410F00F073
:102D1800FD82089B013300F04C874AF48073B9F1B7
:102D2800670F0693139B00F01C87B9F1470F00F05B
:102D380018870B90DDE91212002AC0F232870023AF
:102D48001593DDE91223CDE91C23A9F14103252BB5
:102D580000F26B82DFE813F0B807690269026902C2
:102D6800D6032304690269026902690269026902D9
:102D780069026902690269026902690269026902F3
:102D880069026902690269026902690269026902E3
:102D98006902690269026902B8076902690269027F
:102DA800D6032304384D1AF0200F00F0D3800E9B71
:102DB800073323F007031A46596852F8083B0E9266
:102DC8001AF0010040F0B280089A8DF88F00002AAE
:102DD800C0F2F28053EA01022AF4906A00F0FB8004
:102DE80003F00F02AA5C8DF86F211B0943EA0173F7
:102DF8000A0953EA11110DF26F160BD003F00F01F7
:102E08001B09695C06F8011D43EA0273120953EABB
:102E18000201F3D1089A5CAB4FF0000C9B1B9A425D
:102E2800CDE90FCCB8BF1A460C930692CDF82CC04A
:102E3800CDF850C000283EF4F0AF069BDDE931051F
:102E4800023306931AF08403AE46024604D10A9F61
:102E580006997F1A002F06DCBCF1000F3EF4FAAF8A
:102E68000227FEF7E5BF022383E5084D9BE74AF0FA
:102E7800020A0E92054D03F00F020220AA5C4FF0E1
:102E88007809B0E7CDCCCCCC2C02000018020000A9
:102E9800079930AA584601F0B5F800287FF4ABAB83
:102EA800329D0DF1CC08FEF7E8BF079930AA5846C5
:102EB80001F0A8F800287FF49EAB329D0DF1CC08F4
:102EC800FFF721B9089B0E97062B324628BF062329
:102ED800CDE90B630896CDE90F22AE4E0693149206
:102EE800FEF79BBF082200212EA8FEF7E1FA0E9AF2
:102EF80043AE12682EAB3146584601F009FC0C90DF
:102F080001307ED00C9B23EAE3730693FFF76CB87D
:102F18001AF4007740F0F38108998DF88F70002932
:102F28001D46BFF6D4AE0E92FFF7A1BA53EA0102CE
:102F380048D030228DF8902000228DF88F20089AF2
:102F48008DF89190002A34DB2AF4906242F0020A4C
:102F5800022045E70E9A1AF0100F52F8043B0E9221
:102F680025D11AF0400F1ED09BB2002128E70799FF
:102F780030AA584601F046F800287FF43CABDDE95A
:102F880031750DF1CC09FFF797BB079930AA584660
:102F980001F038F800287FF42EABDDE931750DF12A
:102FA800CC09FFF77CBB1AF4007F40F0AC8100210C
:102FB80006E74AF0020A022003F00F022AF4806AA8
:102FC800AA5C10E7089B002083428DF88F00C0F2AE
:102FD800D5832AF4906A089A002A00F0D880012A3A
:102FE8002B788DF86F31B8BF012200230692012299
:102FF800CDE90F330B930C9214930DF26F16FEF775
:103008000CBF0798B0F90C30426E43F04001D60768
:10301800818100F1CC86990500F1C986079CA06DD5
:10302800FEF7B6FAB4F90C30FFF7F5BA079915931D
:1030380030AA584600F0E6FF00287FF4DCAA9DF885
:103048008F20329D159B002A00F0CD801F460DF180
:10305800CC0803463198FEF7EBBE089B0C93CDE9EC
:103068000F3314930B935CAEFEF7D7BE5846FEF7AA
:10307800F5F9FEF7FEBD079930AA584600F0C2FFE1
:1030880000287FF4B8AA329D0DF1CC08FFF728B8C4
:10309800082200212EA82796FEF70AFA089B002B83
:1030A800C0F25E83002506940B972C461F460EE05F
:1030B80043A9584601F02CFB431C204400F08185AD
:1030C800B84209DC05F1040500F0CC850446279ACE
:1030D80052592EAB002AEBD10C940B9F069C0C9BEB
:1030E800002B00F0A883632B40F3D784591C584663
:1030F800FEF7D8FA0646002800F006870B9008224B
:1031080000212EA8FEF7D4F90C9D2EAB009327AA18
:103118002B463146584601F023FB854240F0EF86A6
:103128000C9A0023B35422EAE27206929DF88F208B
:10313800089312B1069A01320692CDE90F330E9721
:103148001493FEF76ABE15460133159AC8F8002095
:103158003544072BC8F80460CDE931357EF7A4AEB5
:10316800FFF77DBA0E9A099912681160FFF708B93E
:10317800089C15460137159BC9F800304544072FB0
:10318800CDE93175C9F804807FF7AEAA46E4089BFB
:10319800A3E400BF40020000102F319B40F37F865C
:1031A8007648159042462946A0464FF01009079CDC
:1031B800054604E00832103F102F40F3AB8201337C
:1031C8001031072BC2E90059CDE93131F2DD30AABF
:1031D8002146584600F016FF00287FF40CAADDE9C6
:1031E800313133AAE7E7002B7BD0319813460DF134
:1031F800CC08FEF72FBE1AF400717CD0DBB20E9219
:1032080050460021FFF70BB81AF4007F16BF45F3AC
:10321800C017EF176DB23B46FFF704B99DF88F3022
:1032280006920C925CAEFFF735B9089B01932EAB62
:10323800049327AB039325AB0293022300935846CC
:10324800DDE91C2301F0A4FB06461AF0010F40F04B
:103258000384259A2E9B0F929B1BD11C1193C0F2BD
:10326800B68308999142C0F28483934200F30A849A
:103278000F9B0C931AF4806F03D00F9B002B00F365
:103288004E850C9BDDF818A023EAE37306934FF0F4
:103298006709002314931093159B0AF00200002B72
:1032A80000F081814FF02D0C8DF88FC0069B013303
:1032B800069300230893BDE5089B0E92CDE90F33D2
:1032C80014930C9306935CAE4FF078099C460B93CD
:1032D800B3E57718FF1A8E1AB742A8BF3746FFF72B
:1032E8001ABB0DF1CC08FEF7C8BD0E9A09991268F1
:1032F8001180FFF745B80E925046FEF790BF8DF843
:103308008F10DBB2DDE4DBB2002159E545F630036E
:10331800ADF89030089B632B4AF0020A00F305844D
:10332800DDE912128242C0F2728525AADDE9120196
:1033380001F064FA00224FF07F5305F013FA0246B9
:103348000B46CDE90C230022002305F073FC08B1DD
:103358000123259300230A4A159306920B9343AE43
:10336800CDE90F48CDF84490DDE90C45DDF818901B
:10337800089FCDF850A018960CE000BFC0030000CD
:103388002C0200000022002305F054FC002840F025
:103398006F8457468A4B00222046294605F0E2F9F9
:1033A8000D46044605F08EFC804605F071F902468C
:1033B8000B462046294605F01DF819F80830324614
:1033C800044606F8013B0D4607F1FF3A002FD9D114
:1033D80008927C4BDDF84490DDF850A00022CDE93E
:1033E8000C45474635460F9C189EDDF8408005F091
:1033F80049FC40B9DDE90C01724B002205F01AFCCA
:10340800E0B1F8071AD5089B2E93069B15F8012CF6
:10341800D97B91422B4609D1302003F8010C2E9B11
:103428005A1E2E9213F8012C8A42F6D0392A0BBF65
:10343800069A0132927AD2B203F8012C259AAB1B74
:103448001193B9F1610F02F1FF33259300F0DC8489
:1034580050214FF04109002B8DF8A010C0F2CA840A
:103468002B22092B8DF8A12000F3C1820DF1A202B5
:10347800303302F8013B28ABD31A1893119B189AE2
:10348800012B1A440C9240F3A6830C9B169A134402
:103498000C930C9A2AF4806343F4807A22EAE2724D
:1034A8000023CDE90F3314930692F5E6304601F078
:1034B800C3F89DF88F300C9020EAE0720692002B3A
:1034C8003EF477AEFEF773BE079930AA584600F06F
:1034D80099FD00283FF43DA8FFF793B8079930AA53
:1034E800584600F08FFD00287FF485A8DDE93132C9
:1034F80025990DF1CC08FFF7A3B8886DFEF748F8B9
:10350800FFF72AB9089B01331193022300932EABCE
:10351800049327AB119D039325AB0195029358465D
:10352800DDE91C2301F034FA29F02007462F06466E
:10353800054400F0C981DDE91C010022002305F0E3
:1035480079FB002840F08B832E9BAB4238BF452780
:1035580080F0838330215A1C2E9219702E9BAB4227
:10356800F9D39B1B1193472F259B0F9300F0FA81EA
:10357800462F00F0C1810F9B8DF8A090013B002BD6
:103588002593C0F22B822B22092B8DF8A12000F362
:103598002E8230228DF8A2200DF1A30268E7089B45
:1035A80011930323B2E79DF88FC0BCF1000F7FF49D
:1035B8007DAE159B08933DE40E928A46FEF757BFF1
:1035C800000030400000E03F119ADDF85090CDF83F
:1035D80054A01F46109BDDF868A00F94B218002B6A
:1035E8000892294642461B9DDDF81C8014962EDD64
:1035F800B9F1000F7BDD09F1FF393198199B0130D2
:1036080029440728C2E900353291319064DC083238
:10361800089B9AF80000DE1B8642A8BF0646002ECB
:103628000BDD3198013031440728C2E90076329128
:10363800319062DC9AF800000832002EACBF841B7F
:103648000446002C16DC0744109B002BD0DCB9F193
:10365800000FD0DC149ECDF868A09046119A0F9CFC
:10366800DDF854A0B21897423B460D4628BF1346D2
:10367800FFF724B9102C3198B34B1FDD10260C939B
:1036880004E0103C102C02F1080216DD0130AE4BAC
:1036980010310728C2E90036CDE93101F1DD30AA41
:1036A8004146584600F0AEFC00287EF4A4AF103C1A
:1036B800102CDDE9310133AAE8DC0C9B13600130E2
:1036C80021440728CDE93101546000F3C3809AF8FA
:1036D800000008320744B7E730AA4146584600F0D0
:1036E80091FC00287EF487AF329933AA90E7109BAB
:1036F800013B0AF1FF3A10937FE730AA414658464A
:1037080000F080FC00287EF476AF9AF80000329929
:1037180033AA92E744460D4690460133159AC8F8F5
:1037280000203D44072BCDE93135C8F8047000F37B
:103738000B8208F10808FFF7BBB82D23B9F1470F32
:103748008DF88F300B95089540F38A817F4E14953C
:1037580003220423CDE90F550C920693FEF75DBBB7
:103768002EAB0093002327AA1946584600F0F8FF0D
:103778000C90013000F025822796B0E42B788DF864
:103788006F312AF4806A0DF26F16FFF743BB1B9A5C
:103798001999B61A304600F027FE99F801300BB196
:1037A80009F101096A4AEB1943F10003A2FB030C72
:1037B8002CF0030000EB9C001B1AEB1A4FF0CC31E5
:1037C80067F1000703FB01F102FB0711A3FB0230BD
:1037D80001445B0843EAC1754F08EB1943F1000344
:1037E800A2FB031020F0030101EB90015B1AEB1A16
:1037F800A3FB023167F100005B0802FB001243EAF9
:10380800C27303EB8303A5EB4303303306F8013C93
:103818004FF0010E013EFFF714BA079930AA584637
:1038280000F0F0FB00287EF4E6AE2599329D0DF1FC
:10383800CC08FFF76FB99DF88F300E97003B18BF83
:10384800012306930C9B0893CDE90F3314930B9334
:10385800FEF7E3BA30AA4146584600F0D3FB0028E9
:103868007EF4C9AE9AF80000329933AA0744EBE611
:1038780047F63003ADF89030089B632B4AF0020AF4
:1038880000F35381DDE91212002AC0F2158225AA3D
:10389800DDE9120100F0B2FF00224FF07F5304F07F
:1038A80061FF02460B46CDE90C230022002305F0F8
:1038B800C1F9002800F0668201231595259343AECF
:1038C8000B95244B06934BE53378302B00F0A18100
:1038D800259B1D44DDE91C010022002305F0AAF9FF
:1038E800002839D12E9BAB42FFF434AE9B1B1193B9
:1038F800472F259B0F9335D00F99089A0AF001039B
:10390800002943EA020340F3B382002B40F03282DD
:103918000F9B0C934FF066091AF4806F40F00182F8
:103928000C9BDDF818A023EAE3730693B1E407992A
:1039380030AA584600F066FB00287EF45CAE329D43
:103948000DF1CC08FEF7ABBFC00300000C0200006D
:10395800CDCCCCCC18020000259B0F93AB1B472F76
:103968001193C9D10F9B033331DB089B0F9A934204
:1039780010DA0F9B013BA9F10209002B8DF8A090EA
:103988002593BFF600AE0F9B2D22C3F101038DF8DE
:10399800A120FEE5119B0F9A934273DC1AF0010FE8
:1039A8000F9B00F03C82169A13440C9362E407992B
:1039B800089330AA584600F025FB00287EF41BAE79
:1039C800259A329D089B0DF1CC08FEF78DBF0F9B01
:1039D800A9F10209013B8DF8A09025930F9A2D2398
:1039E8008DF8A130C2F101030832BFF6D2AD0DF156
:1039F800AF05AC4F2A461046A7FB0312D20802EBCC
:103A08008201A3EB41013031632B00F8011C1346FE
:103A180000F1FF32EFDC303302F8013C831EAB4289
:103A280080F040820DF1A10213F8011B02F8011F7A
:103A3800AB42F9D103F5B8736B44CC3B1B1A28AAE7
:103A48009B1A18931AE598481590FEF7C1BF0023F2
:103A58000C460893FEF76EB9089B4727F51839E717
:103A6800924E74E6079930AA584600F0CBFA00281F
:103A78007EF4C1AD259E119B329D9E1B0DF1CC0895
:103A8800FEF749BF119B169A9A180F9B0C92002BB0
:103A980040F3B2804FF067093EE700230B9343AE33
:103AA800FFF72DBB4F4210311FDADFF80492CDF833
:103AB8005490102504E008F10808103F102F16DD77
:103AC80001331032072BC8E90095CDE93132F2DD18
:103AD800079930AA584600F095FA00287EF48BAD75
:103AE800DDE931320DF1CC08E7E771491591013371
:103AF8001599C8F800103A44072BCDE93132C8F8B7
:103B080004707FF71CA8079930AA584600F07AFA83
:103B180000287EF470ADDDE931320DF1CC08FEF7F6
:103B280092BD634B1593FEF74FBD089B5846591C31
:103B3800FDF7B8FD064600283FF463AA4AF48073EF
:103B48000B900693FFF7F6B8079930AA584600F08D
:103B580059FA00287EF44FAD329D0DF1CC08FEF7DE
:103B6800A7BE089A002A00F05D81002BC0F26A8186
:103B7800DDE91223CDE91C231595089B01932EAB93
:103B8800049327AB039325AB029302230093584673
:103B9800DDE91C2300F0FCFE002306460B93FFF72B
:103BA80054BB02F100431D932D231C911593FFF77D
:103BB800CCB8062308934AF480730B900693FFF75A
:103BC800B9B8079B9B8900220B9243F04003079AE0
:103BD8009381FEF710BD1AF0010F3FF45AAC54E47C
:103BE80000230322CDE90B320893CDE90F33149358
:103BF80004230693FEF711B9C3F101031A4422EA1C
:103C0800E273DDF818A00C9206934FF06709FFF7EE
:103C180040BBDDE91C010022002305F00BF8002859
:103C280000F00B81259B0F931D4497E6139B13F01F
:103C380000432AF0800A0F9300F0BE802D238DF8F0
:103C48008F30B9F1470F4FF000030B93089340F3FF
:103C58000D81184E03220C92C7E79B1B1193259BDD
:103C68000F9388E4089B069C0B9F0C93FFF737BAC9
:103C780008975746002F3546DDE90F48DDF8449090
:103C8800DDF850A0189EFFF6D9AB08992B462944B9
:103C9800302203F8012B8B42FBD12F447D1CFFF708
:103CA800CDBB00BFCDCCCCCCD003000008020000B7
:103CB800C0030000140200001C9102F100431D9390
:103CC8002D230B9543AE159325AADDE91C0100F0C1
:103CD80095FD00224FF07F5304F044FD02460B4649
:103CE800CDE90C230022002304F0A4FF08B101232E
:103CF8002593B9F1610F3FF4E4AD864B0693FFF7C6
:103D08002FBB0E97002B44D0089B0C935A1C06928D
:103D18000890149010904FF07309FEF77EB84FF09A
:103D280067091A990B78FF2B00F0DF8000250F9A9E
:103D3800284603E001300131FF2B08D0934206DA10
:103D4800D21A4B78002BF5D10B780135F4E7CDE981
:103D58000F201A911495109A149B1B99DDF818A03E
:103D680013440C9A01FB03230C9323EAE373069391
:103D7800FFF792BA169B02EB01094B440C934FF0E4
:103D88006609C9E5644B159006930B9043AEFFF79F
:103D9800E7BA089B0C9306930B9B14931093089314
:103DA8004FF07309FEF739B8D7077EF5E8AC4FF046
:103DB800FF330993FEF732BC9DF88F30B9F1470FF6
:103DC800CCBF564E564E002B40F0818003220893FC
:103DD8000C92149310930B930692FEF71EB8079A51
:103DE800536ED807E3D493899905E0D4906DFDF715
:103DF800CFFBDCE72D238DF8A130C2F10103083297
:103E0800FFF6F5ADFFF732BB7021FFF724BB1C911D
:103E180002F1004353E7434A1592FFF795B90C9313
:103E2800FFF728BA934216DB089B159301230893E2
:103E3800DDE91223CDE91C239FE6119BC3F10103A1
:103E4800259346E5DDE9122303F100431D932D2355
:103E58001C92159391E6DDE9122303F100431D93AB
:103E68002D23159301231C92089386E62C4EF1E628
:103E7800DDF818A033B9012306934FF066090C93B7
:103E8800FFF707BA169B03F10109089B4B440C93F3
:103E980023EAE37306934FF06609FFF7FAB9214A5C
:103EA80015923AE402231893FFF7E8BA0E9A63785A
:103EB8000C4652F8041B0E9241EAE1710891FDF795
:103EC80037BFCDE90F330B931493FDF7A6BF00233B
:103ED8000893149310930B9303230C9304230693D2
:103EE800FDF79BBF5346FEF739BE0023149310938A
:103EF80031E75046FEF728BE5146FEF7DEBA079B6B
:103F08009B8943F0400362E6079B0B909B8943F033
:103F180040035CE62C0200001802000014020000B6
:103F280010020000C0030000F0B50D46ADF2744D5C
:103F3800164689896A6E1B92EA89ADF8162021F027
:103F48000201EA69ADF8141009921CA96A6A029183
:103F5800074606910B924FF48061002218A801933E
:103F6800049107910892FDF70DFB3246019B02A9C7
:103F78003846FDF761FE061E07DB02A9384600F049
:103F880045F9002818BF4FF0FF36BDF814305B061E
:103F980003D5AB8943F04003AB811898FDF7F4FAD9
:103FA80030460DF2744DF0BD0148FDF7EFBA00BF81
:103FB800DC0900200148FDF7EBBA00BFDC0900204E
:103FC8002DE9F8430746884616464FF000097568FC
:103FD800013D11D4B468A389012B08D9B4F90E3076
:103FE80001332146384602D0C04749EA0009013D5D
:103FF8006B1C04F16804EED13668002EE7D1484600
:10400800BDE8F883936810B514461BB91846002319
:10401800636010BD01F05EFE0023A36000236360AF
:1040280010BD00BF70B5002941D006460C4610B13E
:10403800436B002B3ED0FDF72FFA636EB4F90C20CA
:10404800DD0730D4900538D52146304600F04CF8CD
:10405800E36A054633B1E169304698470028B8BF9E
:104068004FF0FF35A3891A0639D4216B41B104F109
:104078004003994202D0304601F00AFD0023236331
:10408800616C21B1304601F003FD00236364636E67
:104098000022DB07A2811ED5A06DFDF775FAFDF79A
:1040A80001FA284670BD002ACED1FDF7FBF900259C
:1040B800284670BDFDF7D2F9BDE7A06DFDF766FA99
:1040C800B4F90C30002BBFD1636ED907EDD4A06DC5
:1040D800FDF75EFAE9E7A06DFDF75AFADCE721691A
:1040E800304601F0D5FCC0E7B1F90C20F8B515074A
:1040F8000C4607464AD4496842F400630029A38164
:104108005FDDA66A002E3FD0002112F480523D6880
:10411800396061D1E16901233846B0470246501C35
:1041280068D0B4F90C30A66A590705D56368D21A65
:10413800236B0BB1E36BD21A0023E1693846B04711
:10414800421CB4F90C3049D139681D293ED82E4A91
:10415800CA40D6073AD52269226023F40062A281B8
:10416800D9044FF00002626002D53B68002B3FD0B3
:10417800216B3D6041B104F14003994202D03846B9
:1041880001F086FC002323630020F8BD0E69002E91
:10419800FAD00D680E6092070CBF4B690023AD1B67
:1041A8008B600BE02B463246E169D4F824C03846D0
:1041B800E0470028A5EB0005064406DD002DF1DCEC
:1041C800E2E7E16B00299CDCDEE7A38943F04003CA
:1041D800A3814FF0FF30F8BD226DA5E72269226068
:1041E80023F40062A281DB044FF000026260BFD5B5
:1041F8002065BDE73B68002B93D01D2B01D0162B03
:10420800E3D13D60C0E700BF0100402000B5034690
:1042180083B008B1426B52B3B1F90C0098B14A6E41
:10422800D20701D4820512D518460091FFF75CFF2A
:1042380000994A6E0346D00702D48A8992050ED5A2
:10424800184603B000BD0346184603B000BD886D8C
:1042580001930091FDF79AF9DDE90013E4E7886D11
:104268000093FDF795F9009B184603B000BDCDE912
:104278000001FDF7F3F8DDE90031CDE710B50C4694
:10428800B1F90E1000F018F9002803DB236D034480
:10429800236510BDA38923F48053A38110BD00BFFB
:1042A8002DE9F0411F46B1F90C301646DA050C46E7
:1042B80005460BD423F48053A381B4F90E103B4672
:1042C80032462846BDE8F04100F01EB90223B1F994
:1042D8000E10002200F0DAF8B4F90C30EAE700BF5B
:1042E80010B50C46B1F90E1000F0D0F8B4F90C3046
:1042F800421C0EBF23F4805343F480532065A381EE
:1043080010BD00BFB1F90E1000F0AEB810B5354BB6
:104318000446186882B00B4610B1426B002A53D08D
:10432800B3F90C20110711D51869C8B1B3F90C20DD
:1043380012F0010126D059694FF0000C4942C3F828
:1043480008C0996120B3002002B010BDD00640D546
:10435800510723D4186942F008029A810028E5D150
:104368009A8902F42072B2F5007FDFD01946204600
:10437800019302F013FA019BB3F90C20186912F0AB
:104388000101D8D1940758BF596999600028DAD13A
:104398001106D9D542F040029A811FE0196B61B12C
:1043A80003F14000814206D02046019301F070FBE2
:1043B800019BB3F90C200021196318690021C3E996
:1043C800000122F02402C6E70191FDF747F8019B9E
:1043D800A6E7092142F0400221609A814FF0FF30A0
:1043E800B2E700BF1000002010B504460843830759
:1043F80001D1032A19D8A44601F1FF3E07E01EF8AF
:10440800011F03F8011B501E31B19C46024663464A
:10441800002AF4D1204610BD94440028FAD003F8AD
:10442800011B6345FBD1204610BD0B46A446186806
:104438001946A0F1013323EA000313F0803F01F18C
:104448000403D9D1043A032A4CF8040BEFD81946CF
:10445800D2E700BF014B93F81002704730060020E6
:10446800004870470808002038B5074C0023054667
:104478000846236004F04EFC431C00D038BD236876
:10448800002BFBD02B6038BD200A002038B58C46A5
:10449800084C114605461A4660460023236004F07E
:1044A80061FC431C00D038BD2368002BFBD02B6077
:1044B80038BD00BF200A002038B58C46084C11468C
:1044C80005461A4660460023236004F053FC431C4B
:1044D80000D038BD2368002BFBD02B6038BD00BF4F
:1044E800200A002038B5074C0023054608462360FB
:1044F80004F048FC431C00D038BD2368002BFBD0D7
:104508002B6038BD200A002038B58C46084C11466F
:1045180005461A46604600232360FCF7D9F9431C78
:1045280000D038BD2368002BFBD02B6038BD00BFFE
:10453800200A0020082802D14FF48050704708B59F
:1045480002F00AFC162303604FF0FF3008BD00BFDD
:1045580038B5074D074C2C1BA41005D0013C55F865
:10456800043D9847002CF9D1BDE8384004F024BC3C
:10457800D08D0000CC8D000001F0FF01102A2BDB4C
:1045880010F0070F08D010F8013B013A8B422DD0EC
:1045980010F0070F42B3F6D1F0B441EA012141EA25
:1045A800014122F007047FF000070023F0E80256DB
:1045B800083C85EA010586EA010685FA47F5A3FA6B
:1045C80087F586FA47F6A5FA87F68EB9EED1F0BCDC
:1045D80001F0FF0102F0070232B110F8013B013A85
:1045E80083EA010313B1F8D10020704701387047FE
:1045F800002D06BF35460338073815F0010F07D1DF
:10460800013015F4807F02BF013015F4C03F01303E
:10461800F0BC0138704700BF000000000000000037
:104628000000000000000000000000000000000082
:10463800000000000000000030B490F800F020F006
:1046480007016FF0000C10F0070491F820F040F01B
:1046580048804FF000046FF00700D1E9002391F87B
:1046680040F000F1080082FA4CF2A4FA8CF283FAC6
:104678004CF3A2FA8CF34BBBD1E9022382FA4CF239
:1046880000F10800A4FA8CF283FA4CF3A2FA8CF336
:10469800E3B9D1E9042382FA4CF200F10800A4FA44
:1046A8008CF283FA4CF3A2FA8CF37BB9D1E9062396
:1046B80001F1200182FA4CF200F10800A4FA8CF210
:1046C80083FA4CF3A2FA8CF3002BC6D0002A04BF5D
:1046D80004301A4612BAB2FA82F200EBD20030BCA9
:1046E8007047D1E9002304F00305C4F100004FEA44
:1046F800C50514F0040F91F840F00CFA05F562EACC
:1047080005021CBF63EA050362464FF00004AAE7EE
:1047180030B5044687B05BB110480193D0F8C85152
:1047280071B12046A847421C019B10D007B030BD8C
:1047380000F5827309480193D0F8C8510029F0D1D7
:104748000A46204603A9A847421C019BEED1002136
:104758008A221960226007B030BD00BF30060020F1
:1047680000B583B0DDF810C0CDE9003C4FF0FF3351
:1047780002F006FC03B000BDF0B51D4C83B0054641
:104788002068019116461F46FCF700FF194A019957
:10479800136823B35A6820681F2A23DC4DB9541CB8
:1047A80002325C6043F82210FCF7F2FE002003B0EE
:1047B800F0BD03EB820E0124CEF88860D3F888C1DF
:1047C80094404CEA040C022DC3F888C1CEF8087155
:1047D800E5D1D3F88C512543C3F88C51DFE7064B5C
:1047E8001360D7E7FCF7D4FE4FF0FF30DFE700BFD8
:1047F80018020020E8090020240A002070B5174E8E
:10480800154621F0004C0022B44503460C462A60A8
:1048180020D85CEA00061DD02E46114D0D408E466C
:104828004DB9104B002203F09DFF6FF0350203468F
:104838008E4621F0004C18466FF31E5E4FEA2C534B
:10484800A3F2FE334EF07F51134441F4001133605C
:104858000C4603461846214670BD00BFFFFFEF7F98
:104868000000F07F000050432DE9F04F03690C6908
:10487800A34283B0C0F28880013C01F1140500F125
:10488800140855F8243058F82420013308EB84061E
:104898009A4200964FEA840B05EB8407B2FBF3F6C5
:1048A8003AD300230191C64629469C4651F8042B69
:1048B800DEF800901FFA82FA06FB0A334FEA134A21
:1048C800120C06FB02A29BB21FFA89FAAAEB030399
:1048D80063441FFA82FCCCEB234C0CEB194C9BB2C3
:1048E80043EA0C438F424EF8043B4FEA2C4C4FEA04
:1048F8001243DBD258F80B3001996BB9009B043B8B
:10490800984504D307E0984504F1FF3403D21A68A8
:10491800043B002AF7D00461814601F003FE002819
:104928002EDB01364146002255F8040BD1F800C0B1
:104938001FFA80FE1FFA8CF3A3EB0E031344020C3C
:10494800C2EB234202EB1C429BB243EA0243AF4252
:1049580041F8043B4FEA2242E6D258F8242008EBFB
:1049680084036AB9043B984504D307E0984504F1E9
:10497800FF3403D21A68043B002AF7D0C9F8104064
:10498800304603B0BDE8F08F002003B0BDE8F08FDB
:104998002DE9F04F816BA1B016461F46CDE904679B
:1049A8002D9D044641B1C26B4A60012393408B6040
:1049B80001F02EFB0023A363B7F10009B4BF012364
:1049C80000232B60B64BBCBF29F00049CDF81490EA
:1049D80033EA090300F0A480DDE9042310461946F0
:1049E80000220023CDE9020104F024F9824668B1CF
:1049F8002C9A012313602E9B13B12E9AA94B136096
:104A0800A94B0793079821B0BDE8F08F1EAB01931F
:104A18001FAB00932046DDE9022301F063FE5FEA45
:104A28001955DDF87880834640F090801F9D4544F5
:104A380005F23243202B40F33282C3F1400309FAD6
:104A480003F905F2124326FA03F349EA030003F0D7
:104A58000FFE0122013DA1F1F873109219460022C0
:104A6800924B03F0C7FC88A3D3E9002303F07AFE36
:104A780087A3D3E9002303F0BFFC064628460F4668
:104A880003F006FE84A3D3E9002303F06BFE02467D
:104A98000B463046394603F0AFFC06460F4604F095
:104AA80011F9002281460A9000233046394604F065
:104AB800CBF8002840F019810A9EA8EB050808F1F8
:104AC800FF35162E089500F2FB80794A02EBC603E3
:104AD800D3E90023DDE9020104F0B6F8002840F02C
:104AE800D881804540F3958535440E9008950D96FC
:104AF8000B9000230C932A9B092B3BD8052BC4BF92
:104B0800043B2A932A9BA3F10203CCBF002501256D
:104B1800032B31D8DFE813F0390236022B02CC011F
:104B28002C9AC9F3130942F20F7359EA0609136064
:104B380019D12E9B002B00F039875E4B0793083361
:104B48002E9A0798136021B0BDE8F08FDDE90201C5
:104B5800C1F3130343F07F53A5F2FF35CDF840A00E
:104B680043F440137AE72E9B002B40F09D81524B73
:104B7800079347E700232A930025E5632946204643
:104B880001F01CFA0790002800F0B486079BA36385
:104B98001F9B002BC0F2B7800A9A0E2A00F3B3803D
:104BA800434B03EBC203D3E90023DDE90289164630
:104BB8001F4640464946CDE9086703F0FDFE04F06C
:104BC80081F8054603F064FD32463B4603F0CAFD12
:104BD8000B4602464946404603F00CFC05F13003FB
:104BE800079D05F8013B4FF0FF3ACDF808B0049453
:104BF8004FF001095446DDE908AB1DE052465B461B
:104C08003046394603F0D8FE04F05CF8804603F0DD
:104C18003FFD52465B4603F0A5FD09F101090B462D
:104C280002463946304603F0E5FB08F13003A1455A
:104C380005F8013B00F05E85204B002203F092FD51
:104C48000022002306460F4603F0F4FF0028D5D0C3
:104C58000A9BDDF808B0049C01330493A946594621
:104C6800204601F0D5F9002389F800302C9B049ADE
:104C78001A602E9B002B3FF4C5AE0798C3F800902E
:104C880021B0BDE8F08F00BF61436F63A787D23FB3
:104C9800B3C8608B288AC63FFB799F501344D33F23
:104CA8000000F07F49020000480200000000F83FC1
:104CB8001805000094020000A00200000000244033
:104CC80001230E93089B002BC0F2DD8000230B9379
:104CD8000A9B002B80F2D280DDE90A32D21A5B42AD
:104CE8000C9300230B920D9305E7484603F0D0FC84
:104CF80032463B4603F09EFF00287FF4DDAE09F103
:104D0800FF330A93D8E64FF0FF3A2B95CDF83CA035
:104D1800109A002A40F03C811E9BDDF83080C3F1D8
:104D28003603089A0B9F1A44012120460892FD1861
:104D380001F034FA0646002F40F0BB820C9B002B92
:104D480000F0F283B8F1000F40F0D78359460C9A6F
:104D5800204601F015FB012383460C9301212046D0
:104D680001F01CFA0D9B0290002B40F05B822A9BFD
:104D7800012B40F3C5820120089B184410F01F0046
:104D880000F00B811B2800F3D5820B9AC0F11C00A0
:104D98000244034405440B920893002D05DD59464F
:104DA8002A46204601F048FB8346089B002B05DD78
:104DB80002991A46204601F03FFB02900E9B002BF9
:104DC80040F01282BAF1000F40F3E8810C9B002BEF
:104DD80040F032810A9B01330493079FDDF8089065
:104DE800012507E0594600230A22204601F01AF956
:104DF8000135834649465846FFF736FD554500F1CB
:104E0800300807F8018BEDDB079BBAF1000F0AF1B8
:104E1800FF3503F10102D8BF002505EB020A002582
:104E280059460122204601F007FB0299834601F00A
:104E380079FB002840F37B83079A02E0924500F053
:104E4800B383D1460AF1FF3A19F8013C392BF5D062
:104E580001338AF800300299204601F0D9F8002E73
:104E68003FF4FDAE2DB1B54203D02946204601F0EE
:104E7800CFF83146204601F0CBF8F0E6089A0D93BA
:104E88001A44089235E6C8F101030B9300230893EE
:104E98001EE70A9B013B0A9300230E9312E7C3F116
:104EA800200306FA03F0D2E5AC4B0793033347E639
:104EB800012312932B9B0A9A134403F1010A5646C5
:104EC800012E0F93B8BF0126172E40F366850122E5
:104ED80004235B0003F11400B042114602F1010201
:104EE800F7D9E163204601F069F80790002800F03F
:104EF8000185BAF10E0FA06358D8002D56D00A9A32
:104F0800002A40F35883964902F00F0301EBC303CC
:104F1800D605D3E900894FEA221540F10C84914B5C
:104F2800DDE90201D3E9082303F046FDCDE91401C8
:104F380005F00F050327002D00F01F82894E01E0C0
:104F48006D100836E80703D46D100836E907F7D561
:104F580040464946D6E9002303F004FC6D1007F1EA
:104F680001078046894600F008820836EEE70123EB
:104F780012932B9B002B40F3AC812B9B0F939A46EB
:104F88001E46A1E70023129394E700231293F0E74B
:104F9800DDF8308003F23343C3E61C200B9B034447
:104FA8000B93089B034405440893F6E61F9B002BCC
:104FB800C0F24E810A9A0E2A00F34A81684B1C936C
:104FC8000A9A1C9B03EBC203D3E90023CDE908230B
:104FD8002B9B002B80F2B683BAF1000F00F3B2834B
:104FE80040F0D782604B0022DDE9080103F0BAFBEC
:104FF80002460B46DDE9020103F030FE5146002867
:1050080040F0C882DDF81C90312309F8013B2046A6
:1050180000F0FEFF0A9B0233049320E6314600238A
:105028000A22204600F0FEFF0F9B002B064640F3A5
:10503800AB84DDF83CA00A950B9B002B05DD3146BF
:105048001A46204601F0F8F906460D9B002B40F061
:105058003A833746079D6B1E53440C93049B03F019
:1050680001030D9302995846FFF7FEFB314682462D
:1050780000F13008584601F055FA029981463A463F
:10508800204601F06FFAC3680146002B36D10B9019
:10509800584601F047FA0B990890204600F0B8FFEF
:1050A800089A002A62D12A9B1BB90D9B002B00F09D
:1050B8005384B9F1000F42DB0C9BAA469D420AF8C3
:1050C800018B00F06283594600230A22204600F033
:1050D800A9FFBE42834631464FF000034FF00A0253
:1050E800204635D000F09EFF3946064600230A22A6
:1050F800204600F097FF55460746B3E7204600F0E4
:1051080087FFB9F1000F08DB049B03F001022A9B1B
:1051180049EA030952EA090236D1594601222046D2
:1051280001F08AF90299834601F0FCF9002840F35E
:105138000484B8F1390F00F0C9830AF13108A9468F
:1051480009F8018B0A9B0133354604933E4682E6F3
:1051580000F068FF55460646074683E7A0020000B0
:1051680018050000F004000000001440B9F1000F19
:10517800C0F220842A9B49EA03090D9B53EA0909D6
:1051880000F01884002A97DDB8F1390F00F09E83EB
:10519800A94608F1010309F8013BD3E72A9B022B32
:1051A8007FF714AEBAF1000F40F05F8202995346C0
:1051B8000522204600F036FF01460290584601F0CD
:1051C800B1F9504540F35182DDF81C900299312322
:1051D80009F8013B204600F01BFF0A9B02330493A9
:1051E800002E7FF446AE3AE50299584601F09AF946
:1051F8000028BFF6E7AD594600230A2220460A9D3B
:1052080000F010FF0C9B013D8346002B7FF406AF96
:105218000F9B002B40F3AB830A9BDDF83CA0049363
:105228000A95DAE51A460146204601F0A9F82A9BB4
:105238000290012B40F33A8200230D93029A1369DE
:1052480002EB8303186900F03FFFC0F1200093E5EB
:10525800129AAAB90B9B002B72D10C9B002B40F021
:1052680081801D461E4679E51F9BDDF860B0DDF89C
:1052780050A0129C002B03DB0A9A0E2A7FF7A0AEDF
:105288002A9A012A7FF744AD0C9B0AF1FF37BB42EB
:10529800C0F2C881BAF1000FA3EB070880F264835B
:1052A800012120460B9D00F079FFA5EB0A07064671
:1052B8000B97089B002B7FF741AD0B99089881420B
:1052C8000B46A8BF0346CA1AED1AC31A0B920893D5
:1052D80034E50021E163204600F070FE07900028C5
:1052E80000F00883079BA363002D40F0DB811F9B20
:1052F800AB42C0F22A8301220F922B92924659E6C2
:10530800049B002B7FF437AD059BC3F31303002BDD
:105318007FF431AD059B23F000431B0D1B05002BCB
:105328003FF429AD089B01330893012301350D9300
:10533800184621E51C283FF430ADC0F13C002DE6AD
:10534800089B002B00F028820B9908980C9E81423C
:105358000B46A8BF0346CD1AC31A08930B95002E17
:105368003FF4FCAC59460C9A204601F009F800239A
:105378000B9D0C9383461E46F0E442464B46DDE9FE
:10538800140103F019FB804689460E9B43B1BE4BBE
:1053980000224046494603F057FC002840F06F823F
:1053A800384603F075F942464B4603F0DBF9B74B34
:1053B800002203F021F80546A1F15076BAF1000F5A
:1053C80000F0CE800A9B1D93CDF850A0B04B1499E5
:1053D8001C9303EBC10353E902124046CDE91A12AC
:1053E8004946CDE9185603F06DFC00F1300603F08C
:1053F8004FF902460B464046494602F0FBFF079B21
:10540800894612995D1C8046CDE91689DDE91A2383
:105418002F46002900F0C7819E49002003F0CCFAEE
:10542800DDE9182302F0E6FFDDF81CC002460B4652
:10543800CDE912238CF8006042464B4603F022FC6B
:10544800002840F06582DDF85080CDF860B0CDF8D6
:1054580050A08146DDE912AB1294DDE916452BE038
:1054680009F10109C145BFF6FFAE8B4B50465946BD
:10547800002203F077F9884B002282468B462046AB
:10548800294603F06FF90D46044603F01BFC00F1B2
:10549800300603F0FDF802460B462046294602F086
:1054A800A9FF07F8016B52465B4604460D4603F018
:1054B800CBFB002840F0298222462B467249002067
:1054C80002F098FF52465B4603F0BEFB0028C7D0A7
:1054D8001D9EDDF860B0129C079A3D46013602E039
:1054E800954200F0F081A94615F8013D392BF7D017
:1054F80001332B700496FFF7B2BB31464246204673
:1055080000F03EFF5A4601460646204600F074FE6B
:1055180059460746204600F07BFD0C9BB3EB080379
:10552800BB460C937FF412AC01230C9316E403D111
:1055380018F0010F7FF480ACD1461AF8013D302BEA
:10554800FAD088E4384603F0A3F842464B4603F005
:1055580009F94E4B002202F04FFF0546A1F15076A3
:105568004E4B40464946002202F044FF2A46334645
:105578008046894603F086FB002840F0B381404608
:1055880049462A4606F1004303F05EFB00283FF433
:105598000DAD0021204600F03BFD2B9BDDF81C9053
:1055A8005B420493FFF75BBB0A9B079A02330493A1
:1055B800312313704FE400F05E810A9B344A5D4248
:1055C80005F00F0302EBC303D3E90023DDE9020171
:1055D80003F0C8F82D118046894600F0DC81304E72
:1055E800022701E06D100836EA0703D46D1008366B
:1055F800EB07F7D540464946D6E9002303F0B2F851
:105608006D1007F10107804689463FF4BEAE0836A3
:10561800EEE7C8F101030B930A9B0E9008930D93D4
:10562800FFF767BA0C9B0D9ADDF82C80FB1A1A4419
:10563800089B0D92534401212046089300F0AEFDCB
:1056480008EB0A0506460C97B8F1000F3FF47EAB4D
:105658000B99089881420B46A8BF0346CA1AED1A4F
:10566800C31A0B920893FFF771BB0299204600F00A
:10567800CFFC2B9BDDF81C905B420493002E7FF43B
:10568800F8ABFFF7ECBA00BF0000F03F00001C4089
:10569800180500000000E03F00002440000014400E
:1056A800F00400000F952B95AA4628E4049B002BD4
:1056B8007FF4C2ADDDE90412C2F31303002B00F03E
:1056C8002D810D91BAE57168204600F077FC0546FA
:1056D800002800F07481336902339A0006F10C0146
:1056E8000C3001F03FFB29460122204600F0A4FEC1
:1056F8000746AFE4DDF808B0049C02460B4602F00A
:105708007BFE0A9B013304931E46DDE9082381468C
:105718008A4603F0B7FA48B9DDE9082348465146F6
:1057280003F088FA20B118F0010F01D0079ADAE6E1
:10573800A946FFF794BADDE902230227CDE914232D
:10574800FFF7F9BB079B5F1CDDE90256DDE908237B
:105758002846314603F030F903F0B4FA804602F0E7
:1057680097FFDDE9082302F0FDFF02460B462846B5
:10577800314602F03FFE079A08F13003BAF1010FF3
:105788003D4613707FF431AAB7E70A9B01333546CB
:1057980004933E46FFF744BB0C9E002E7FF4E2AD17
:1057A8000B9DFFF7DBBADDE9180102F0DBFF079B71
:1057B8001E70149B012BCDE9100127D0079B149A6A
:1057C800CDF848B0DDE9160103EB0209A846AB465F
:1057D8007E4B002202F0C6FF0F46064603F072FA1F
:1057E80000F1300502F054FF02460B4630463946B8
:1057F80002F000FE08F8015BC845E9D15F46149B3A
:10580800DDF848B0CDE916017D1E1D44704B00221D
:10581800DDE9100102F0F0FDDDE9168942464B464C
:1058280003F012FA00286CD1DDE910236849002042
:1058380002F0E0FD42464B4603F024FA80B91F9B74
:105848008342FFF607AD0A9B0E2B3FF703AD1C9B67
:105858000A9A03EBC206D6E90023CDE9082373E7C9
:10586800A946013D19F8013C302BF9D01D9B0133A5
:105878000493FFF7F4B9DDE90289022785E5BAF157
:10588800000F3FF45FAE0F9B002B7FF78FAB0A9A98
:105898004E4B013A404649461D92002202F062FFF3
:1058A80080468946781C02F0F3FE42464B4602F0D9
:1058B80059FF484B002202F09FFD0F9B14930546A9
:1058C800A1F1507682E50136312312E6AA46392342
:1058D8000AF8013B0A9B079A0133354604933E4672
:1058E800FFF7AFBADDF81C90312309F8013B00211E
:1058F800FFF78DBB384B3948002240F2AF1101F059
:1059080053FB1D9E079A0136EDE5DDF860B0129C49
:105918001D9B01330493B946FFF7A1B9059B23F0FA
:1059280000431B0D1B05002B3FF487AC089B01337C
:105938000893012301350D9380E47FF400AC18F03F
:10594800010F7FF4F6ABFFF7FABB129B4BBB0123A9
:105958000F932B939A467DE4B8F1390FB6D0914551
:105968003FF7EBABFFF7EBBB5346FFF7DAB92A9AE1
:10597800022A05DC0A9A04929A460A95FFF72DBA7C
:105988000A95DDF83CA00DE42A9A0A95022AF8DC6B
:105998009A46FFF751BB0227F7E40021E163FFF7BE
:1059A800A1BA129B2B939A460F936DE40C4B079365
:1059B800FFF728B8002A3FF7B0ABFFF7C0BB064B8C
:1059C80006482A4640F2EF2101F0EEFA0000244092
:1059D8000000E03F00001C40A4020000B8020000E4
:1059E80094020000F8B5064608200C46FEF7A2FD12
:1059F80007463046FEF7D8FA224A93685D6825F0D4
:105A08000305A5F111031C1B3C44B4FBF7F4013C4E
:105A180007FB04F4A74208DC00213046FEF762FDCC
:105A2800184A93682B44984204D03046FEF7C2FACD
:105A38000020F8BD61423046FEF754FD0130114A9E
:105A48000DD0114993682D1B45F001055D600B6869
:105A580030461B1B0B60FEF7ADFA0120F8BD002194
:105A68003046FEF73FFD074A9268831A0F2BDCDDAC
:105A780043F001035360054B03491B68C01A0860D3
:105A8800D3E700BF28020020EC0900201C020020F8
:105A9800002963D02DE9F0410C460746FEF784FA49
:105AA80054F804EC7D49A4F1080C2EF001030CEB2A
:105AB80003028D685068954220F0030000F08B8047
:105AC800151850606D6805F001060EF00105A5BBBC
